:100000000C941B070C9443070C9443070C94430770
:100010000C9443070C9443070C9443070C94430738
:100020000C9443070C9443070C94E51B0C94541C4C
:100030000C9443070C9443070C9443070C94430718
:100040000C9443070C9443070C9443070C94430708
:100050000C9443070C9443070C9443070C94861E9E
:100060000C9443070C9443070C9443070C944307E8
:100070000C9443070C9443070C9443070C944307D8
:100080000C9443070C9443070C9443070C944307C8
:100090000C94D01E0C9443070C9443070C94430714
:1000A0000C9443070C9443070C9443074445544570
:1000B00043544544204F4E202B3132560044455482
:1000C0004543544544204F4E202B355600FFFFFF3B
:1000D000FFFFFFFFFFFFFFFFFFFFFFFFFFFFFFFF30
:1000E000FFFFFFFFFFFFFFFFFFFFFFFFFFFFFFFF20
:1000F000FFFFFFFFF1F3FCC03C0FFFFFFFFFFFFF1F
:10010000FFFFFFFFE0F1F8C03C07FFFFFFFFFFC765
:10011000FFFFFFFFC079F9C03C03FFFFFFFFFF8334
:10012000FFFFFFFFCE79F9CFFCF3FFFFFFFFFF8357
:10013000FFFFFFFF9F38F1CFFCF3FFFFFFFFFF3909
:10014000FFFFFFFF9F3CF3CFFCF3FFFFFFFFFF7DAF
:10015000FFFFFFFF9F3CF3C07C03FFFFFFFFFE7C20
:10016000FFFFFFFF9F3CF3C07C07FFFFFFFFFEFE8A
:10017000FFFFFFFF9F3E67C07C0FFFFFFFFFFCFEFE
:100180007FFFFFFF9F3E67CFFCC7FFFFFFFFFDFF25
:100190007FFFFFFF9F3E67CFFCE7FFFFFFFFF9EF09
:1001A0003FFFFFFFCE7E07CFFCE3FFFFFFFFF9C756
:1001B0003FFFFFFFC07F0FC03CF3FFFFFFFFF3C710
:1001C0009FFFFFFFE0FF0FC03CF3FFFFFFFFF3C700
:1001D0009FFFFFFFF1FF0FC03CF9FFFFFFFFE7C7E5
:1001E000CFFFFFFFFFFFFFFFFFFFFFFFFFFFE7C79F
:1001F000CFFFFFFFFFFFFFFFFFFFFFFFFFFFCFC7A7
:10020000E7FFFFFFFFFFFFFFFFFFFFFFFFFFCFC77E
:10021000E7FFFFFFFFFFFFFFFFFFFFFFFFFF9FC79E
:10022000F3FFC7E7CF01F01F00F3E7003FFF9FC7D1
:10023000F3FF83E7CF01F01F00F1E7003FFF3FEF3F
:10024000F9FF03E7CF00F00F00F1E7003FFF3FFFAA
:10025000F9FF31E7CF3CF3CF3FF0E7F3FFFE7FFF3D
:10026000FCFE7BE7CF3CF3CF3FF0E7F3FFFE7FEFF1
:10027000FCFE7FE7CF3CF3CF3FF067F3FFFC7FC787
:10028000FC7E7FE7CF00F00F01F067F3FFFCFFC7B4
:10029000FE7E7FE7CF01F01F01F367F3FFFCFFEF66
:1002A000FE7E7FE7CF03F03F01F307F3FFFCFFFF84
:1002B000FE7E7FE7CF31F31F3FF307F3FFFC7FFFA5
:1002C000FC7E79E7CF39F39F3FF387F3FFFC000013
:1002D000007F31E38F38F38F3FF387F3FFFE000099
:1002E00000FF03F01F3CF3CF00F3C7F3FFFF000054
:1002F00001FF83F01F3CF3CF00F3C7F3FFFFFFFFC5
:10030000FFFFC7F83F3E73E700F3E7F3FFFFFFFF90
:10031000FFFFFFFFFFFFFFFFFFFFFFFFFFFFFFFFED
:10032000FFFFFFFFFFFFFFFFFFFFFFFFFF415458ED
:1003300032415420434F4E56455254455220312E9F
:1003400032310000000000003E5B4F5B3E3E6B4FD1
:100350006B3E1C3E7C3E1C183C7E3C181C577D5757
:100360001C1C5E7F5E1C00183C1800FFE7C3E7FF03
:100370000018241800FFE7DBE7FF30483A060E2696
:1003800029792926407F050507407F05253F5A3CEE
:10039000E73C5A7F3E1C1C08081C1C3E7F14227F31
:1003A00022145F5F005F5F06097F017F0066899509
:1003B0006A606060606094A2FFA29408047E0408F2
:1003C00010207E201008082A1C08081C2A08081E75
:1003D000101010100C1E0C1E0C30383E3830060E5B
:1003E0003E0E06000000000000005F000000070055
:1003F0000700147F147F14242A7F2A122313086411
:100400006236495620500008070300001C224100B4
:100410000041221C002A1C7F1C2A08083E080800F4
:100420008070300008080808080000606000201094
:100430000804023E5149453E00427F40007249494E
:1004400049462141494D331814127F10274545452F
:10045000393C4A4949314121110907364949493650
:10046000464949291E0000140000004034000000E5
:100470000814224114141414140041221408020117
:100480005909063E415D594E7C1211127C7F494943
:1004900049363E414141227F4141413E7F494949E0
:1004A000417F090909013E414151737F0808087FD6
:1004B00000417F41002040413F017F081422417FDD
:1004C000404040407F021C027F7F0408107F3E4175
:1004D00041413E7F090909063E4151215E7F0919CC
:1004E0002946264949493203017F01033F404040E4
:1004F0003F1F2040201F3F4038403F6314081463D3
:1005000003047804036159494D43007F414141028E
:1005100004081020004141417F04020102044040D0
:10052000404040000307080020545478407F28448E
:1005300044383844444428384444287F3854545478
:100540001800087E090218A4A49C787F0804047887
:1005500000447D40002040403D007F1028440000C2
:10056000417F40007C047804787C08040478384497
:10057000444438FC1824241818242418FC7C08044B
:100580000408485454542404043F44243C4040206C
:100590007C1C2040201C3C4030403C442810284417
:1005A0004C9090907C4464544C44000836410000C8
:1005B00000770000004136080002010204023C26D8
:1005C00023263C1EA1A161123A4040207A3854549F
:1005D0005559215555794122545478422155547822
:1005E0004020545579400C1E5272123955555559B8
:1005F000395454545939555454580000457C4100DD
:1006000002457D420001457C407D1211127DF0289B
:100610002528F07C545545002054547C547C0A090C
:100620007F4932494949323A4444443A324A484877
:10063000303A4141217A3A42402078009DA0A07D85
:100640003D4242423D3D4040403D3C24FF24244841
:100650007E4943662B2FFC2F2BFF0929F620C088EB
:100660007E090320545479410000447D41304848BC
:100670004A32384040227A007A0A0A727D0D1931D6
:100680007D2629292F28262929292630484D402032
:10069000380808080808080808382F10C8ACBA2F0E
:1006A000102834FA00007B000008142A14222214B7
:1006B0002A14085500550055AA55AA55AAFF55FFFA
:1006C00055FF000000FF00101010FF00141414FF6D
:1006D000001010FF00FF1010F010F0141414FC00B4
:1006E0001414F700FF0000FF00FF1414F404FC14BE
:1006F0001417101F10101F101F1414141F001010B7
:1007000010F0000000001F101010101F101010102B
:10071000F010000000FF101010101010101010FF4B
:1007200010000000FF140000FF00FF00001F101762
:100730000000FC04F414141710171414F404F4004B
:1007400000FF00F714141414141414F700F7141411
:1007500014171410101F101F141414F4141010F098
:1007600010F000001F101F0000001F14000000FC0C
:10077000140000F010F01010FF10FF141414FF14F8
:100780001010101F00000000F010FFFFFFFFFFF02F
:10079000F0F0F0F0FFFFFF0000000000FFFF0F0F80
:1007A0000F0F0F3844443844FC4A4A4A347E020250
:1007B0000606027E027E0263554941633844443C8A
:1007C00004407E201E2006027E020299A5E7A5991C
:1007D0001C2A492A1C4C7201724C304A4D4D303053
:1007E00048784830BC625A463D3E494949007E013E
:1007F00001017E2A2A2A2A2A44445F444440514A5D
:10080000444040444A51400000FF0103E080FF00A3
:100810000008086B6B083612362436060F090F06DF
:10082000000018180000001010003040FF01010007
:100830001F01011E00191D1712003C3C3C3C00002A
:10084000000000000103070F1F3F7F0080C0E0F0A1
:10085000F8FCFE070605040100080A0B0C0D090050
:100860000000002300260029002C002F00000000BB
:100870000200090F0000030401000C00000000004A
:10088000000000000000000000000000080B000253
:100890000202000009040000010202000005240019
:1008A00010010524010101042402060524060001AB
:1008B0000705810310004009040100020A0000003E
:1008C0000705020240000007058302400000040300
:1008D000090412010002EF020140412337800001A8
:1008E0000102030141726475696E6F204C4C430034
:1008F00041726475696E6F204D6963726F0000000C
:100900000000240027002A002D003000DB40A4A6B0
:100910002EAF2000A1C8D300408DAED580A804081A
:1009200002011040804010204080408008020401F5
:100930008040201002011080102040402000000064
:1009400000250028002B002E0031000404040404BC
:100950000304050202020204030202020206060662
:1009600006060604040202020404000060000000FF
:100970000000000000000000000000E00000000097
:1009800000000000000000000001E0000000000086
:10099000000000000000000001F000000000000066
:1009A0000000000000000003F00000000000000054
:1009B00000000000000007F0000000000000000040
:1009C000000000000007F800000000000000000028
:1009D000000000000FF800000003C0007E000001CE
:1009E000E0007F0FF800000003C000FE000001E0FF
:1009F00000FFEFF800000003C000FE000001E0006F
:100A0000FFFFF800000003C000F00000000F007FAF
:100A1000FE7FC0000003C000F00000000F003FFE9A
:100A20007FF83FF1FBCFFCFEF3BC3DEFE01FFE7F04
:100A3000FF7FFBFFDFFEFEFFBC3DEFE01FC6FFFFB9
:100A40007FFBFFDFFEFEFFBC3DEFE00FE3C7FE785C
:100A50007BC3DE1EF0FFBC3DEF0007FF87FC787B09
:100A6000C3DE1EF0F83C3DEF0001FFFFF0007BC34A
:100A7000C01EF0F03C3DEF0001F37FE03FFBC3CF31
:100A8000FEF0F03C3DEF0003E33F807FFBC3DFFE61
:100A9000F0F03C3DEF0007E73C00787BC3DE1EF042
:100AA000F03C3DEF0007FFBE00787BC3DE1EF0F098
:100AB0003C3DEF0007FFFE00787BC3DE1EF0F03CFC
:100AC0003DEF000FFFFE007FFBFFDFFEF0F03FFD7C
:100AD000EFE00FFFFF007FFBFFDFFEF0F03FFDEFD9
:100AE000E00FF9FF003E79F9CF9EF0F01F3DE7E0FF
:100AF0001FF1FF0000000000000000000000001FC8
:100B000080FF007FFFFFFFFFFFFFFFFFFFE01C00F4
:100B10007F007FFFFFFFFEB46D888D18E000001F8F
:100B2000007FFFFFFFFE95AD7DB577E000000F0071
:100B30007FFFFFFFFEA5AD9D8D19E0000006007F41
:100B4000FFFFFFFEB5ADEDB57EE000000000000147
:100B50008000000000000000000003800000000092
:100B6000000000000007C0000000000000000000BE
:100B700007C00000000000000000000FC0000000DF
:100B80000000000000001FE0000000000000000066
:100B9000001FE00000000000000000003FE0000037
:100BA000000000000000003FF00000000000000016
:100BB00000007FF0000000000000001FF87FF00040
:100BC0000000000000003FFE7FF000000000000079
:100BD000003FFF7FF0000000000000001FFFFBE06F
:100BE000000000000000000FFFF9FFC0000000003F
:100BF00000000FFFF9FFF800000000000007FFF100
:100C0000FFFF00000000000003FC73FFFF800000F6
:100C100000000001FE3FFFFF80000000000000FF19
:100C20001E0FFF000000000000007FFE1FFC000000
:100C300000000000003FFFFFF8000000000000007F
:100C40000FDFFFE0000000000000001F19FFC000E0
:100C50000000000000003F3CFF000000000000001A
:100C6000007E7CF800000000000000007FFE7C0099
:100C700000000000000000FFFFFC0000000000007A
:100C80000000FFFFFE0000000000000000FFFFFE6C
:100C90000000000000000001FFEFFE000000000067
:100CA000000001FFCFFE0000000000000003FF076E
:100CB000FE0000000000000003FC07FE0000000032
:100CC00000000003F003FE000000000000000180AF
:100CD00000FE000000000000000000007E00000098
:100CE000000000000000003E0000000000000000C6
:100CF00000000C000000000000078000FC00000362
:100D0000C0000000078001FC000003C000000007D5
:100D10008001FC000003C0000000078001E000002B
:100D2000001E000000078001E00000001E007FE3BD
:100D3000F79FF9FDE7787BDFC0FFF7FFBFFDFDFF01
:100D4000787BDFC0FFF7FFBFFDFDFF787BDFC0F0E2
:100D5000F787BC3DE1FF787BDE00F0F787BC3DE123
:100D6000F0787BDE0000F787803DE1E0787BDE00F5
:100D70007FF7879FFDE1E0787BDE00FFF787BFFD0F
:100D8000E1E0787BDE00F0F787BC3DE1E0787BDED8
:100D900000F0F787BC3DE1E0787BDE00F0F787BC30
:100DA0003DE1E0787BDE00FFF7FFBFFDE1E07FFB88
:100DB000DFC0FFF7FFBFFDE1E07FFBDFC07CF3F3A7
:100DC0009F3DE1E03E7BCFC000000000000000003E
:100DD000000000FFFFFFFFFFFFFFFFFFFFC0FFFF5F
:100DE000FFFFFD68DB111A31C0FFFFFFFFFD2B5A2B
:100DF000FB6AEFC0FFFFFFFFFD4B5B3B1A33C0FFF9
:100E0000FFFFFFFD6B5BDB6AFDC0556E6B6E6F779E
:100E10006E20436F6D6D616E643A20004348454318
:100E20004B53554D204641494C4544002200FF217B
:100E300000002220EC2711241FBECFEFDAE0DEBF36
:100E4000CDBF11E0A0E0B1E0E4E8F7E502C0059015
:100E50000D92A43FB107D9F723E0A4EFB1E001C0A0
:100E60001D92A93BB207E1F717E0CAE1D7E004C041
:100E70002197FE010E946F2AC931D107C9F70E944C
:100E80008C200C94B52B0C9400000895FC018091EB
:100E90001403882311F13FB7F89482E08093E900AE
:100EA0002091F200822F90E01816190614F481E0C8
:100EB00090E0882339F0289A44E640931303409148
:100EC000F1004083222339F02091F200211103C068
:100ED0002BE62093E8003FBF08958FEF9FEF089522
:100EE0002FB7F89483E08093E9009091E800892F70
:100EF000807295FF04C09091F20080E4891B2FBF9F
:100F0000089580910B0381110DC082E08093070347
:100F100084E08093080310920A031092090381E091
:100F200080930B0387E093E008950895089540911E
:100F3000AA025091AB022091A8023091A902421757
:100F40005307B4F49091E8009570E1F39091E800B4
:100F500092FD19C08093F1008091AA029091AB029A
:100F600001968F739927892B19F48EEF8093E800EF
:100F70008091AA029091AB0201969093AB0280936C
:100F8000AA0281E0089580E00895DF92EF92FF9237
:100F90000F931F93CF93DF93D82E8A01EB017B0130
:100FA000E40EF51ECE15DF0559F0D7FE12C0FE0186
:100FB00084910E94970721968111F4CF0FEF1FEFC4
:100FC000C801DF91CF911F910F91FF90EF90DF90BB
:100FD00008958881EECF0F931F93CF93DF931F92D5
:100FE000CDB7DEB782E0898342E450E06CE878E078
:100FF00080E80E94C5070E948107DC0112960D91CE
:101000001C910115110589F0D801ED91FC91028028
:10101000F381E02DBE016F5F7F4FC801099597FDF9
:1010200004C0F80100851185ECCF89810F90DF9114
:10103000CF911F910F910895615030F02091F100F0
:10104000FC0120830196F8CF289A84E6809313034D
:101050000895EF92FF920F931F93CF93DF938C012C
:101060007B01D0E0C0E0F701EC0FFD1F6491662327
:1010700061F0D801ED91FC910190F081E02DC80163
:101080000995892B11F02196EECFCE01DF91CF91FA
:101090001F910F91FF90EF900895AF92BF92CF9262
:1010A000DF92EF92FF920F931F93CF93DF936C0128
:1010B0007B018B01040F151FEB015E01AE18BF0809
:1010C000C017D10759F06991D601ED91FC910190BB
:1010D000F081E02DC6010995892B79F7C501DF91D3
:1010E000CF911F910F91FF90EF90DF90CF90BF9025
:1010F000AF900895CF93DF931F92CDB7DEB769838A
:10110000DC01ED91FC910280F381E02D41E050E0A3
:10111000BE016F5F7F4F09950F90DF91CF910895CA
:1011200083E08093E9008091F200882319F08AE33C
:101130008093E80008950E94700790E00895CF938F
:10114000DF931F92CDB7DEB7FC018485958597FDAF
:1011500008C02FEF3FEF358724870F90DF91CF91A5
:101160000895CE0101960E944607019719F48981DE
:1011700090E0F3CF8FEF9FEFF0CF0F931F93CF93BC
:10118000DF931F92CDB7DEB78C01FC018485958576
:1011900097FF0BC0CE0101960E944607019771F49C
:1011A000898190E0F80195878487F8018485958589
:1011B0000F90DF91CF911F910F9108958FEF9FEFC7
:1011C000F1CFFC018485958597FD0BC09FB7F894FE
:1011D00082E08093E9008091F2009FBF90E0019649
:1011E00008959FB7F89482E08093E9008091F2001F
:1011F0009FBF90E0089581508F3008F047C0E82FDE
:10120000F0E0EB5FF64F0C946F2A220926091409CF
:101210001A091E0946094609460929092F093309F1
:1012200037093D0946094109809180008F778093F5
:1012300080000895809180008F7DF9CF809180009B
:10124000877FF5CF84B58F7784BD089584B58F7D72
:10125000FBCF809190008F778093900008958091CC
:1012600090008F7DF9CF80919000877FF5CF80919E
:10127000C0008F778093C00008958091C0008F7D5B
:10128000F9CF8091C200877F8093C2000895CF93E9
:10129000DF93282F30E0F901E359F74F8491F901EA
:1012A000E25EF64FD491F901E55BF64FC491CC2391
:1012B000A1F081110E94FB08EC2FF0E0EE0FFF1F60
:1012C000E15AF74FA591B491EC91ED2381E090E0C4
:1012D00009F480E0DF91CF91089580E090E0FACFAB
:1012E0001F93CF93DF93282F30E0F901E359F74F95
:1012F0008491F901E25EF64FD491F901E55BF64F76
:10130000C491CC23A9F0162F81110E94FB08EC2F69
:10131000F0E0EE0FFF1FE35CF64FA591B4918FB79D
:10132000F894EC91111108C0D095DE23DC938FBFA7
:10133000DF91CF911F910895DE2BF8CFCF93DF93EC
:1013400090E0FC01E25EF64F2491855B964FFC0134
:1013500084918823C9F090E0880F991FFC01E25026
:10136000F74FA591B491FC01E35CF64FC591D49180
:1013700061110DC09FB7F8948C91209582238C93B6
:101380008881282328839FBFDF91CF910895623001
:1013900051F49FB7F8943C91822F809583238C93CE
:1013A000E8812E2BEFCF8FB7F894EC912E2B2C9356
:1013B0008FBFEACF823108F08251E82FF0E0ED5A7A
:1013C000F74FE49190917B008E2F880F880F8072E9
:1013D0009F7D892B80937B0080910C0120E4829F6C
:1013E000C0011124E770E82BE0937C0080917A0023
:1013F000806480937A0080917A0086FDFCCF809192
:1014000078009091790008953FB7F8948091A402F4
:101410009091A502A091A602B091A70226B5A89B23
:1014200005C02F3F19F00196A11DB11D3FBFBA2F76
:10143000A92F982F8827BC01CD01620F711D811D36
:10144000911D42E0660F771F881F991F4A95D1F7BB
:1014500008958F929F92AF92BF92CF92DF92EF92B8
:10146000FF924B015C010E94040A6B017C010E9407
:10147000040A6C197D098E099F09683E7340810535
:101480009105A8F321E0821A9108A108B10888EE1D
:10149000C80E83E0D81EE11CF11C81149104A10444
:1014A000B10429F7FF90EF90DF90CF90BF90AF90FD
:1014B0009F908F9008958F929F92AF92BF92CF92FC
:1014C000DF92EF92FF920F931F93CF93DF936C0104
:1014D0007B018A0180910B01882309F45CC0809113
:1014E0001403882309F457C08091AE0280FF05C021
:1014F0008091E00082608093E000E801B12C8AEFE7
:10150000A82E93E0892E2AE3922E209711F4BB2077
:10151000D9F10E94700781110AC0AA94AA20D9F1BA
:1015200061E070E080E090E00E94290AEECF8C1725
:101530001D0611F00CF08C2F9FB7F8948092E900F3
:101540002091E80025FD02C09FBFDFCF282F30E0AB
:10155000C21BD30BF701815020F041914093F10061
:10156000FACFE20EF31EBB2021F09092E800B12CDE
:10157000EBCF8091E80085FDE7CF9092E800BB2497
:10158000B394209709F3F3CF5D9A84E68093AD027C
:10159000101611063CF081E090E0F60193838283FF
:1015A00010E000E0C801DF91CF911F910F91FF90F3
:1015B000EF90DF90CF90BF90AF909F908F90089565
:1015C0002FB7F8946091A0027091A1028091A202BD
:1015D0009091A3022FBF089585ED8093BC00809168
:1015E000BC0084FDFCCF1092B702089520915802F0
:1015F000260F3327331F21323105ECF42091B70237
:10160000FC0190E080E0243069F082E00895A09130
:1016100058022191AC01485C5D4FA40FB52FB11D5C
:101620002C930196861798F380915802680F609367
:10163000580280E0089581E008959B01AC0160E0CC
:1016400074E284EF90E00E944D2A20513109410953
:10165000510956954795379527952093B8000895D9
:10166000E091B9028091B802E81730F4F0E0E85E4A
:10167000FD4F808190E008958FEF9FEF0895909146
:10168000B9028091B8022FEF3FEF981748F4E92F85
:10169000F0E0E85EFD4F208130E09F5F9093B9025B
:1016A000C90108958091B8029091B902891B990BE4
:1016B0000895CF92DF92EF92FF920F931F93CF93F3
:1016C000DF937C01CB018A0120911803222389F04A
:1016D000EB016B01C40ED51ECC15DD0569F06991D7
:1016E000D701ED91FC910190F081E02DC7010995A2
:1016F000F3CF642F0E94F60AC801DF91CF911F91AA
:101700000F91FF90EF90DF90CF900895CF93DF93EC
:101710001F92CDB7DEB76983209118032223F9F019
:1017200020911503203258F021E030E0FC01338392
:10173000228390E080E00F90DF91CF910895809117
:101740001603E82FF0E0E850FE4F998190838F5FF9
:10175000809316038093150381E090E0ECCF61E065
:10176000CE0101960E94F60AF7CF2091150381E081
:10177000213208F044C08091B7028111FCCF8091E2
:10178000170392E09093B70291E09093B6029FEF17
:1017900090937B0210929D0220939C02A8EFB1E0EF
:1017A000ECE7F2E090E0291331C010929E02909194
:1017B0009E02880F892B80939E028091B502813012
:1017C00049F51092B50280919E028093BB008091F2
:1017D000BC0083FDF8CF85EC8093BC008091B702FC
:1017E0008230E1F380917B028F3FB1F080917B02E8
:1017F0008032A1F080917B02803391F084E01092DE
:101800001603109215031092180308953D91319319
:101810009F5FC9CF85EEE0CF80E0F1CF82E0EFCFD0
:1018200083E0EDCFEF92FF920F931F93CF93DF935F
:10183000EC01EC80FD806E157F050CF070C057FF49
:1018400004C0240F351F50E040E08E819F81FA01D3
:10185000E20FF31F8E179F071CF49C01241B350B0E
:10186000121613060CF05BC0922F842F8695869576
:1018700086958E9DD0018F9DB00D11246A0F7B1F20
:10188000AF8DB8A1A60FB71F477049F188E0841B40
:10189000482F682F70E0FB01E55BF74FE4912817B4
:1018A00008F063C0621B71092FEF30E002C035956C
:1018B00027956A95E2F7E2230130110539F0B0F17E
:1018C0000230110561F58C91E82702C08C91E82B5C
:1018D000EC93941720F12C813D81A20FB31FE92FC7
:1018E000E41BE83078F00230110521F58E2F9C9131
:1018F00090959C932C813D81A20FB31F8850883016
:10190000B0F7E770EE2359F0F0E0ED5BF74FE491AC
:1019100001301105F9F010F10230110519F1DF91D4
:10192000CF911F910F91FF90EF900895E0958C91CA
:10193000E823CECF81E00115110509F480E08195FF
:101940009E2F8C932C813D81A20FB31F985098300D
:10195000C0F7D7CF8C91E82BEC93E1CFE0958C9139
:10196000E823FACF8C91E827F7CF0130110509F46D
:10197000ADCFE0F20230110509F4A5CFAE0DBF1DC9
:10198000AECF0F931F93CF93DF9377FF04C0260F43
:10199000371F70E060E0DC011496CD91DC91FB0113
:1019A000E20FF31FCE17DF071CF49E01261B370B37
:1019B000121613064CF5FA0157FD3796A3E0F5957C
:1019C000E795AA95E1F7EC9FD001ED9FB00DFC9F44
:1019D000B00D11246A0F7B1FDC015F96ED91FC9125
:1019E000E60FF71F4770552781E090E001C0880F90
:1019F0004A95EAF7482F0130110559F0A8F02E0F4B
:101A00003F1F02301105E1F0DF91CF911F910F913F
:101A100008952E0F3F1FE217F307B1F38191DF0105
:101A20001197842B8C93F7CF80952E0F3F1FE217D1
:101A3000F30751F39191DF01119798239C93F7CF0E
:101A4000E217F30709F38191DF01119784278C9343
:101A5000F7CF0F931F93FA01DC0156964C915697DE
:101A60004230E9F04330A1F1413061F514964D91D7
:101A70005C91DA01AE1BBF0BFD01E21BF30B77FD9E
:101A80000BC0DC0116964D915C916417750724F428
:101A9000AB01BF010E94C10C1F910F9108951496D4
:101AA0004D915C91DA01A61BB70BBD016150710924
:101AB000DC0116964D915C91DA01AE1BBF0BFD0166
:101AC000E21BF30B77FDE8CFAF010E94120CE4CFCD
:101AD00016964D915C91DA01A61BB70BBD016150C2
:101AE0007109CDCF0F931F93FA01DC0156964C91EB
:101AF00056974230A9F0433091F1413019F51496D0
:101B00004D915C91DA01AE1BBF0BFD013197F7FDE2
:101B100004C0AB01BF010E94120C1F910F910895E8
:101B200014964D915C91DA01A61BB70BBD01DC0147
:101B300016964D915C91DA01AE1BBF0BFD013197FA
:101B4000621B730BF7FDE9CFDC0116964D915C919A
:101B5000E417F50714F7AF010E94C10CDECF16960B
:101B60004D915C91DA01A61BB70BBD01621B730B93
:101B7000CECFFC0177FD64C0808591856817790719
:101B80000CF05EC057FD5CC08285938548175907ED
:101B90000CF056C086898230B1F0833029F1813053
:101BA00041F484819581841B950BAB01BC0161508C
:101BB00071092130310509F108F443C022303105A3
:101BC00009F463C0089584819581DC01A61BB70BDD
:101BD000BD016150710986819781DC01A41BB50BA1
:101BE000AD0141505109E5CF86819781861B970B46
:101BF000BA01AC0141505109DCCFCA0157FD07962B
:101C0000A3E095958795AA95E1F7A481B5818A9F70
:101C100090018B9F300D9A9F300D1124620F731F1E
:101C2000078CF0A1E02DE60FF71F4770552721E044
:101C300030E001C0220F4A95EAF78081822B808331
:101C40000895CA0157FD079633E0959587953A9513
:101C5000E1F7A481B5818A9F90018B9F300D9A9FF7
:101C6000300D1124620F731F078CF0A1E02DE60FD9
:101C7000F71F4770552781E090E001C0880F4A9513
:101C8000EAF7809590818923DACFCA0157FD07963C
:101C900023E0959587952A95E1F7A481B5818A9FE0
:101CA00090018B9F300D9A9F300D1124620F731F8E
:101CB000078CF0A1E02DE60FF71F4770552721E0B4
:101CC00030E001C0220F4A95EAF780818227B7CF22
:101CD00008958EBD00000DB407FEFDCF8EB50895AA
:101CE000EF92FF920F931F93CF93DF937C01C62F48
:101CF0008091920390919303009709F459C0209129
:101D0000960331E0309318032093170310921603C3
:101D100010921503DC01ED91FC910190F081E02D12
:101D200060E009958701EE24E394F12CD1E0C150E5
:101D30008091920390919303CF3F91F1B0E2EB1623
:101D4000F104D8F00E94B50B809192039091930317
:101D500020919603D0931803209317031092160333
:101D600010921503DC01ED91FC910190F081E02DC2
:101D700060E00995EE24E394F12C80919203909118
:101D80009303F8016491DC01ED91FC910190F081E5
:101D9000E02D0995BFEFEB1AFB0A0F5F1F4FC7CF6E
:101DA000DF91CF911F910F91FF90EF900C94B50BA5
:101DB000E091A203F091A30390818091A803809504
:101DC000892380838701C15008F438C0F8018491C9
:101DD0002091900330919103232B29F00E94690EEA
:101DE0000F5F1F4FF0CF28E030E040E8E0919E0306
:101DF000F0919F039091A603582F5423D9F050815E
:101E0000952B9083E091A003F091A10390815091D4
:101E1000A703952B9083E091A003F091A10350813B
:101E20009091A70390959523908346952150310971
:101E3000E9F6D6CF508190959523E3CFDF91CF91EE
:101E40001F910F91FF90EF9008951F93CF93DF9311
:101E5000EC018D8D9E8D009721F1162F29A131E087
:101E60003093180320931703109216031092150352
:101E7000DC01ED91FC910190F081E02D60E009958D
:101E80008D8D9E8DDC01ED91FC910190F081E02D16
:101E9000612F09958D8D9E8DDF91CF911F910C94AF
:101EA000B50BADA5BEA59C918BA9809589238C937C
:101EB0008B8D9C8D892B31F0862FDF91CF911F91D7
:101EC0000C94690E28E030E080E8A9A5BAA599A98C
:101ED000462F4823C1F04C91942B9C93ABA5BCA5F5
:101EE0009C914AA9942B9C93ABA5BCA54C919AA913
:101EF000909594239C9386952150310931F7DF9179
:101F0000CF911F9108954C9190959423E6CF8CBD6D
:101F10009DBD0895CF93C82F809192039091930314
:101F2000892B01F16091AA037091AB038091AC03FE
:101F30009091AD030E941D0B6C2F85E793E00E94EA
:101F4000250F8091920390919303892B11F1609159
:101F5000AE037091AF038091B0039091B103CF9124
:101F60000C941D0B8091900390919103892B31F07B
:101F70008091B3039091B4030E94870FE091A40372
:101F8000F091A50390818091A90380958923808396
:101F9000D3CFE091A403F091A50380819091A90390
:101FA000892B8083CF910895DF92EF92FF920F9358
:101FB0001F93CF93DF938091920390919303892B8A
:101FC00009F48AC06091AA037091AB038091AC03BD
:101FD0009091AD030E941D0B65E08CE29EE00E9493
:101FE000700E60917903615085E793E00E94250FA0
:101FF00020917B0330917C03C901079697FD0796DA
:1020000023E0959587952A95E1F720917903309102
:102010007A03829F8001839F100D929F100D1124DF
:10202000C0919403D0919503809192039091930372
:102030000C0F1D1F009709F480C02091960331E01A
:102040003093180320931703109216031092150370
:10205000DC01ED91FC910190F081E02D60E40995A7
:10206000EE24E394F12CDD24D3948091920390919B
:1020700093030C171D0709F446C0B0E2EB16F104F8
:10208000D8F00E94B50B8091920390919303209118
:102090009603D09218032093170310921603109200
:1020A0001503DC01ED91FC910190F081E02D60E4DD
:1020B0000995EE24E394F12C80919203909193037F
:1020C0006991DC01ED91FC910190F081E02D099581
:1020D000BFEFEB1AFB0AC9CF809190039091910357
:1020E000892B31F08091B3039091B4030E94870F44
:1020F000E091A403F091A50390818091A9038095BC
:102100008923808369CF0E94B50B809192039091BF
:102110009303892B09F452C06091AE037091AF0311
:102120008091B0039091B103DF91CF911F910F91F6
:10213000FF90EF90DF900C941D0BE091A203F091C3
:10214000A30380819091A803892B80830C171D071E
:10215000E1F289912091900330919103232B19F0A2
:102160000E94690EF3CF28E030E040E8E0919E0342
:10217000F0919F039091A603582F5423D9F05081DA
:10218000952B9083E091A003F091A1039081509151
:10219000A703952B9083E091A003F091A1035081B8
:1021A0009091A703909595239083469521503109EE
:1021B000E9F6CCCF508190959523E3CFE091A4032D
:1021C000F091A50380819091A903892B8083DF91F1
:1021D000CF911F910F91FF90EF90DF9008951F9383
:1021E000CF93DF93EC01162F8D8D9E8D892BC9F037
:1021F0006DA97EA98FA998AD0E941D0B66EA1111E9
:1022000067EACE010E94250F8D8D9E8D892BC9F026
:1022100069AD7AAD8BAD9CADDF91CF911F910C94E0
:102220001D0B8B8D9C8D892B21F08EAD9FAD0E9457
:10223000870FEFA5F8A990818CA9809589238083C9
:10224000DDCFEFA5F8A980819CA9892B8083DF9140
:10225000CF911F9108950895FC016370668B84816E
:10226000958126813781613039F0633029F091877B
:1022700080873387228708953187208793878287D5
:1022800008952F923F924F925F926F927F928F921A
:102290009F92AF92BF92CF92DF92EF92FF920F93F5
:1022A0001F93CF93DF93CDB7DEB76A970FB6F8943D
:1022B000DEBF0FBECDBF9A8F898F7A8369834A01B3
:1022C000D22E18870F833701BC2CDC0159962D9133
:1022D0003C915A972115310509F015C118968D9139
:1022E0009C911997681779070CF0D7C11A968D91B0
:1022F0009C91481759070CF0D0C14C2C512CB6E0DA
:10230000CB9E600D711D11247C876B8716161706F6
:102310000CF0C3C1EA2DF0E0FA87E98793E0EE0FF5
:10232000FF1F9A95E1F7F88BEF87CF01840F951F78
:10233000181619060CF0B1C1A98DBA8D58968C915A
:10234000811104C0BFEABD1508F4D394A98DBA8DDC
:10235000ED91FC9111970284F385E02DCD01099553
:10236000B5E0DB9EC0011124E981FA81FC83EB8397
:10237000312C212C9C012D5B3C4F388F2F8B4A2D0B
:1023800050E05E8B4D8BEF89F88DE20DF31D44918B
:102390009E828D82D12CC12C69817A81620D731D40
:1023A0007A8B698B842F90E09C8B8B8BE98DFA8DD7
:1023B000A081B18140FF82C0F1E0BF126FC0AF12B7
:1023C0006DC01C96ED91FC912F813885A4014C0DB8
:1023D0005D1D69897A89898D9A8D0995EB89FC89BA
:1023E000F595E7954E2F5FEFC51AD50A6D817E8171
:1023F0008D899E89680F791F7E836D8398E0C91649
:10240000D10481F6AFEF2A1A3A0AEB81FC81E40D80
:10241000F51DFC83EB83F5E02F16310409F0B3CFF3
:102420002F81388526153705B9F0A98DBA8DED9124
:10243000FC91B1E0BB1257C0AB1255C069817A81E3
:102440006B5F7F4F0088F189E02D830128E030E049
:10245000A401898D9A8D0995A98DBA8DED91FC9174
:1024600011970688F789E02DCD016A960FB6F8948A
:10247000DEBF0FBECDBFDF91CF911F910F91FF90B7
:10248000EF90DF90CF90BF90AF909F908F907F9014
:102490006F905F904F903F902F9009941E96ED9112
:1024A000FC91EF80F88409851A8592014D815E8147
:1024B0006B817C81898D9A8D099590CF2F8138858C
:1024C0002615370509F48ACF31E0B31207C0A312ED
:1024D00005C01C96ED91FC91930178CF1E96ED916D
:1024E000FC917301E0CF6B857C85641975090684C6
:1024F000F785E02D73010F8518899201A401898D5C
:102500009A8D0995A9CFF901349694913297459106
:102510005491D91AB7E0DB9E400D511D1124F901E9
:10252000259134913C8B2B8BFA0125903490FA0144
:102530003296749031963491398B329664903196FC
:10254000449041E04C1518F04A1508F07FC0662D04
:10255000062C000C770B7C836B83842D042C000CE1
:10256000990B9E838D83A98DBA8DED91FC91119766
:102570000284F385E02DCD010995512CD12CC12C7D
:10258000EA2DF0E0FA87E9872B2D30E03C872B8796
:10259000A401440D511D47FC5A95588F4F8B6981FA
:1025A0007A81660D711D67FC7A957E876D877989C2
:1025B000C71608F051CF2C2D30E04D815E81420FBF
:1025C000531FA985BA854A9FC0014B9F900D5A9F02
:1025D000900D1124FC01E80DF91DF88BEF87852D76
:1025E000612C4F89588D420F531F5E8B4D8B6714A2
:1025F00008F050C044244394480E877041F4C10150
:102600000196EB89FC89E20DF31DD4901C01D7FEE5
:1026100019C0A98DBA8DED91FC91662D70E0B1E0E5
:10262000BB1219C0AB1217C02D853E85620F731FF8
:102630000484F585E02D2F8138854D895E89898D4B
:102640009A8D0995DD0C6394842DD1CF1E821D8255
:102650001C821B8288CF4B815C81640F751FAB8508
:10266000BC856A9FC0016B9F900D7A9F900D1124CD
:1026700069817A81680F791F0684F785E02DEF80E4
:10268000F88409851A859D014F855889898D9A8D11
:102690000995D8CF570CC3948ACF6A960FB6F89491
:1026A000DEBF0FBECDBFDF91CF911F910F91FF9085
:1026B000EF90DF90CF90BF90AF909F908F907F90E2
:1026C0006F905F904F903F902F9008958F929F92C0
:1026D000AF92CF92EF92FF920F931F93CF93DF931E
:1026E000EC01262F898D9A8D009709F051C06A3030
:1026F000D1F41D861C868D8948E0849F90011124A9
:102700008E859F85820F931F9F878E8781E090E043
:10271000DF91CF911F910F91FF90EF90CF90AF90ED
:102720009F908F9008956D3089F3CC88AD888F8904
:102730008823C1F08C859D8536E0C39E800D911D58
:102740001124488559854817590764F44E855F85DB
:102750001D861C8638E0A39EC0011124840F951F9E
:102760009F878E87EA88FB88088919894E855F854F
:102770006C857D85CE010E9441112C898C859D85BB
:1027800046E0249F800D911D11249D878C87BECF2C
:102790006A3069F41D861C86FC013896E4912D8907
:1027A0008E859F85E29F800D911D1124ADCF6D30E8
:1027B00009F4ACCFFC0134963491631708F4A6CF2A
:1027C0003296E491E61708F4A1CFFC013296859089
:1027D0009490462F431B342F47E0349F800C911C6C
:1027E0001124F401329634913196E4913323A9F106
:1027F000EE2399F1CC88F4013596E491AD884F89A8
:10280000442301F10E2E000CFF0BE30FF11DCE9EB1
:10281000A001CF9E500D11246C857D85460F571F5A
:1028200068857985641775076CF44E855F851D860C
:102830001C86FC013896E491AE9E400D511D11247A
:102840005F874E87EA88FB88088919894E855F85EE
:102850006C857D85CE010E944111F4013496E4918E
:102860002C898C859D85E29F800D911D11248DCF33
:102870006F927F928F929F92AF92BF92CF92DF9290
:10288000EF92FF920F931F93CF93DF93EC016B01B5
:102890005A0139014801E881F9810284F385E02D6C
:1028A0000995E881F9810288F389E02D8701930178
:1028B000A501B601CE010995A501480D591D41504C
:1028C0005109E881F9810288F389E02D9301B6016D
:1028D000CE010995E881F9810088F189E02D940104
:1028E000A501B601CE010995C60CD71CB6016150F1
:1028F0007109E881F9810088F189E02D9401A50131
:10290000CE010995E881F9810688F789E02DCE018D
:10291000DF91CF911F910F91FF90EF90DF90CF90BB
:10292000BF90AF909F908F907F906F9009946F921F
:102930007F928F929F92AF92BF92CF92DF92EF924F
:10294000FF920F931F93CF93DF935C01EB016A011A
:10295000490138018701DC01ED91FC916217730791
:1029600019F5641675062CF0962D872D3A01C92E9F
:10297000D82E9601261937092F5F3F4F048CF58D0D
:10298000E02DA301BE01C5010995DF91CF911F91F3
:102990000F91FF90EF90DF90CF90BF90AF909F90FE
:1029A0008F907F906F9008954615570591F42617E4
:1029B000370724F0892D4B01C22FD82F9E012819EB
:1029C00039092F5F3F4F068CF78DE02DA601B4012A
:1029D000DACF0284F385E02D0995D501ED91FC91C4
:1029E0000488F589E02D83019401A601BE01C5018B
:1029F0000995D501ED91FC910688F789E02DC50177
:102A0000DF91CF911F910F91FF90EF90DF90CF90CA
:102A1000BF90AF909F908F907F906F900994EF92AE
:102A2000FF920F931F93DC011A960D911C911B9737
:102A300018962D913C911997ED91FC9100A0F1A170
:102A4000E02D7B0150E040E070E060E009951F91CF
:102A50000F91FF90EF9008954F925F926F927F9247
:102A60008F929F92AF92BF92CF92DF92EF92FF929E
:102A70000F931F93CF93DF936C012B015A01390100
:102A80004801DC01ED91FC910284F385E02D09956C
:102A9000E201640C751CD601ED91FC91C615D705B9
:102AA0005CF40088F189E02D87019401A501BE0145
:102AB000C60109952196EFCF0688F789E02DC6015A
:102AC000DF91CF911F910F91FF90EF90DF90CF900A
:102AD000BF90AF909F908F907F906F905F904F903E
:102AE00009948F929F92AF92BF92CF92DF92EF9212
:102AF000FF920F931F93CF93DF93EC015B014A0189
:102B00006901E881F9810284F385E02D0995950139
:102B10002C0D3D1D21503109E881F9810488F5898A
:102B2000E02D78018401A401B501CE010995E88169
:102B3000F9810688F789E02DCE01DF91CF911F91B1
:102B40000F91FF90EF90DF90CF90BF90AF909F904C
:102B50008F9009948F929F92AF92BF92CF92DF9203
:102B6000EF92FF920F931F93CF93DF93EC015B01E2
:102B70004A0169017801E881F9810284F385E02D39
:102B80000995C80CD91C860101501109E881F98109
:102B90000488F589E02D9501A401B501CE010995C0
:102BA000E881F9810688F789E02DCE01DF91CF9188
:102BB0001F910F91FF90EF90DF90CF90BF90AF905B
:102BC0009F908F900994EF92FF920F931F93DC01D7
:102BD000ED91FC9100A0F1A1E02D09951F910F91BD
:102BE000FF90EF9008950F931F93DC01ED91FC91FE
:102BF000068CF78DE02D09951F910F9108950F9385
:102C00001F93DC01ED91FC91048CF58DE02D09956D
:102C10001F910F910895DC01ED91FC910084F185E5
:102C2000E02D09943F924F925F926F927F928F9224
:102C30009F92AF92BF92CF92DF92EF92FF920F934B
:102C40001F93CF93DF9300D000D0CDB7DEB75C01E8
:102C50003B016A014901280187E0480E511C93E0BD
:102C6000559447949A95E1F7CA018E0D9F1D9A835A
:102C70008983F12CE12C312C1C821B828B819C815D
:102C800087709927330C892B61F4EB81FC8183E0F9
:102C9000F595E7958A95E1F7EE0DFF1DE80DF91D15
:102CA000349037FE0AC021E030E0A6016B817C81C0
:102CB000660D771DC5010E940B168B819C810196C4
:102CC0009C838B8308171907C9F69FEFC91AD90A85
:102CD000E40CF51C89819A81C816D90669F60F9013
:102CE0000F900F900F90DF91CF911F910F91FF9058
:102CF000EF90DF90CF90BF90AF909F908F907F909C
:102D00006F905F904F903F9008952F923F924F9217
:102D10005F926F927F928F929F92AF92BF92CF926B
:102D2000DF92EF92FF920F931F93CF93DF9300D028
:102D300000D000D0CDB7DEB73C016A013E832D83C1
:102D4000FC82EB825801A41AB50AB7FE03C0B19405
:102D5000A194B1088D809E80861A970A97FE03C0C1
:102D60009194819491088A149B045CF0902F812F98
:102D70000D811E819D838E839C2D8D2D6B01692F6E
:102D8000782F0C151D055CF09D818E817E836D83EF
:102D9000692F782F902F812F8601C92ED82E1601EA
:102DA000201A310A2B012D813E81421A530A57FE07
:102DB00003C0519441945108710137FE03C03FEFA5
:102DC000E31AF30AF594E7948D819E81861797079D
:102DD0005CF5A1E0B0E0BA83A983C016D1064CF13E
:102DE000D301ED91FC910484F585E02D2B813C818C
:102DF000A8016D817E818A149B041CF04D815E8147
:102E0000B801C3010995E418F508F7FE0AC02D8141
:102E10003E8189819A81280F391F3E832D83E20CE0
:102E2000F31C0F5F1F4FD9CF2FEF3FEF3A8329835A
:102E3000D4CF26960FB6F894DEBF0FBECDBFDF917C
:102E4000CF911F910F91FF90EF90DF90CF90BF90A7
:102E5000AF909F908F907F906F905F904F903F903A
:102E60002F900895089590E080E00895882309F454
:102E70003FC060E080E00E94700960E081E00E9455
:102E8000700961E087E10E94700960E087E00E94BC
:102E9000700962E370E080E090E00E94290A61E03E
:102EA00080E00E94700961E081E00E94700960E0AA
:102EB00087E10E94700981E0809300030E94E00A8C
:102EC0006093E6027093E7028093E8029093E90230
:102ED0000E94E00A6093E2027093E3028093E402AE
:102EE0009093E50262E070E080E090E00C94290AA3
:102EF00061E087E00E94700960E080E00E94700954
:102F000060E081E00E94700961E087E10E94700941
:102F10001092000308952091BB0230E0EAEBF2E04A
:102F200080E0AF014A5B5240421753071CF4919175
:102F30008927F7CF089520917B0330917C03C90145
:102F4000079697FD079623E0959587952A95E1F7D3
:102F50002091790330917A03829FA001839F500DC5
:102F6000929F500D112470E060E080919403909145
:102F700095030C94AE2B89E193E00E94E1081816AA
:102F800019062CF489E193E00E949F08F4CFECEC41
:102F9000F2E084E1DF011D928A95E9F71092E002E8
:102FA0001092CB021092CA0208950E94E00A609328
:102FB000030370930403809305039093060384E056
:102FC00090E00E94FB272AE0829FC0011124909389
:102FD00012018093110183E090E00E94FB27882377
:102FE00091F083E090E00E94FB27282F30E0A0E6DC
:102FF000BAEE0E94752A60930D0170930E018093C2
:103000000F019093100183E090E00E94FB2791E074
:103010008F3F09F490E09093E10285E090E00E94F8
:10302000FB278170809301038CE090E00E94FB27D6
:1030300090E09093F7018093F6018DE090E00E947C
:10304000FB2790E09093F5028093F4028EE090E0ED
:103050000E94FB2790E09093F5018093F4018FE0AC
:1030600090E00E94FB2790E09093EF028093EE02A5
:103070000895FF920F931F93CF93DF93F82E82E072
:1030800090E00E94FB27853111F0FF24F39490E03B
:1030900080E00E94FB278D3A09F46EC08BE090E03F
:1030A0000E94FB2761E0680F8BE090E00E940328FC
:1030B0000BE411E0D0E0C0E0FF2011F0CA3028F4AA
:1030C000F8016081CE010E94032821960F5F1F4FF7
:1030D000C031D10589F710E000E0C0E3D0E0912FC6
:1030E00088E0E0E0EE0FFF0B292F2170E22B969590
:1030F0008150C1F7E095E77084E0E89FF00111246A
:10310000E55DFE4F20E030E040EA51E460817181EE
:10311000828193810E94DB290E94F528CE0180974D
:103120000E940328902F88E0E0E0EE0FFF0B292F8C
:103130002170E22B96958150C1F7E095E37084E011
:10314000E89FF0011124E55EFE4F20E030E040EA08
:1031500051E460817181828193810E94DB290E9408
:10316000F528CE010E9403282196005C185FC03527
:10317000D10509F0B4CF02C0F11090CFDF91CF910B
:103180001F910F91FF9008950E94A92BFB010190C0
:103190000020E9F73197AF01461B570BDC01ED9199
:1031A000FC910280F381E02D09948F929F92AF925F
:1031B000BF92EF92FF920F931F93CF93DF93CDB700
:1031C000DEB7A1970FB6F894DEBF0FBECDBF7C016E
:1031D000FA01CB0119A2223008F42AE08E010F5D1A
:1031E0001F4F822E912CB12CA12CBF01A50194015F
:1031F0000E944D2AF901CA016A300CF5605DD801C0
:103200006E938D01232B242B252B79F790E080E002
:10321000109721F0BD01C7010E94C618A1960FB6F4
:10322000F894DEBF0FBECDBFDF91CF911F910F91FC
:10323000FF90EF90BF90AF909F908F900895695C42
:10324000DECFBC0185E793E00C94C6184F925F92E5
:103250006F927F928F929F92AF92BF92CF92DF92A6
:10326000EF92FF926B017C01AC019B010E94482A06
:1032700062EB71E0811126C046015701E894B7F86E
:103280002FEF3FEF4FE75FE7C501B4010E94482AE7
:1032900081110CC02FEF3FEF4FE75FE7C501B4018D
:1032A0000E947E2866EB71E0181664F02FEF3FEF66
:1032B0004FE75FE4C701B6010E94D629181694F4BF
:1032C0006AEB71E085E793E0FF90EF90DF90CF909D
:1032D000BF90AF909F908F907F906F905F904F9036
:1032E0000C94C6182FEF3FEF4FE75FECC701B60114
:1032F0000E947E2887FDE4CF20E030E0A901C701CD
:10330000B6010E947E28B12CA12C87FF0AC06DE275
:1033100085E793E00E9466135C01F7FAF094F7F8F2
:10332000F0942AE037ED43EA5BE3C701B6010E945F
:1033300012282B013C010E94F5286B017C010E94A0
:1033400024299B01AC01C301B2010E9411282B0169
:103350003C012AE0B701A60185E793E00E94D51859
:103360007C01EA0CFB1C6EE285E793E00E94661389
:10337000E80EF91E20E030E040E251E4C301B20162
:103380000E94DB292B013C010E94F5284B01B12C46
:10339000A12C2AE0B501A40185E793E00E94D5188D
:1033A000E80EF91EC501B4010E9424299B01AC015D
:1033B000C301B2010E94112820E030E040E251E454
:1033C0000E94DB290E94F528AB0170E060E02AE052
:1033D00085E793E00E94D5188E0D9F1DFF90EF901A
:1033E000DF90CF90BF90AF909F908F907F906F9025
:1033F0005F904F9008954F925F926F927F928F925D
:103400009F92AF92BF92CF92DF92EF92FF920F9373
:103410001F932B013C0149015A010E949B1781E037
:103420008093890380938A0381E090E090938803DE
:103430008093870390938603809385031092820381
:103440001092810310928403109283036DE273E063
:1034500085E793E00E942908EE24E394F12C0AE02A
:1034600010E020E830E04AE050E070E060E085E7FE
:1034700093E00E9497148091FF02811105C0809112
:10348000FE02882309F44EC096E2E92EF12C00E8F2
:1034900010E02DEC30E04BE050E070E060E085E7BC
:1034A00093E00E941216EE24E394F12C0FE010E05A
:1034B00020E830E041E350E070E060E085E793E031
:1034C0000E942C1510928803109287031092860395
:1034D0001092850384E190E09093820380938103AE
:1034E00084E390E090938403809383038091FF02B0
:1034F0006DEB70E0811102C06CEA70E085E793E04B
:103500000E9429081F910F91FF90EF90DF90CF90BC
:10351000BF90AF909F908F907F906F905F904F90F3
:103520000C94D40F85E090E0909382038093810304
:1035300081E190E090938403809383038EEB91E08C
:103540000E942119C090F002D090F102E090F202A6
:10355000F090F30220E030E0A901C701B6010E941B
:103560007E2887FF03C0C12CD12C7601C701B6018C
:103570000E94261985EC91E00E94211988E10E94A1
:10358000DA09BC01990F880B990B0E94262920E0CB
:1035900030E040E85AE30E94DB2920E030E040E4DC
:1035A00050E40E94DB2920E030E040E251E40E9438
:1035B000832820E030E048EC51E40E94DB296B01D5
:1035C0007C016091F6017091F70190E080E00E942B
:1035D000242920E030E040E85BE30E94DB2920E082
:1035E00030E040E05FE30E941228A70196010E94AC
:1035F000DB290E94261989EC91E00E94211985E0BF
:1036000090E090938203809381038DE190E090930A
:103610008403809383038CEC91E00E942119C09075
:10362000EA02D090EB02E090EC02F090ED0220E094
:1036300030E0A901C701B6010E947E2887FF03C0C0
:10364000C12CD12C7601C701B6010E94261985EC48
:1036500091E00E9421198DE10E94DA09BC01990FC5
:10366000880B990B0E94262920E030E040E85AE3BD
:103670000E94DB2920E030E040E450E40E94DB2996
:1036800020E030E040E251E40E94832820E030E076
:1036900044E652E40E94DB296B017C016091F40155
:1036A0007091F50190E080E00E94242920E030E054
:1036B00040E85BE30E94DB2920E030E040E05FE38C
:1036C0000E941228A70196010E94DB290E94261958
:1036D00089EC91E00E9421191092820310928103DB
:1036E0008DE290E0909384038093830383ED91E0D7
:1036F0000E942119C301B2010E9426198DED91E0AB
:103700000E942119109282031092810388E390E0B5
:1037100090938403809383038FED91E00E9421199D
:10372000C501B4010E9426198DED91E00E94211976
:10373000EE24E394F12C06E110E026E230E04AE2C8
:1037400050E06AE570E085E793E00E942C1509E2FD
:1037500010E020E830E049E250E070E060E085E70A
:1037600093E00E94971482E08093890380938A03F8
:10377000109288031092870310928603109285039B
:103780008DE00E944709892B89F081E690E09093B3
:103790008203809381038EE290E090938403809370
:1037A000830389EE91E00E942119ACCE8CE590E074
:1037B00090938203809381038EE290E09093840340
:1037C000809383038CEE91E0EECF1F920F920FB6A1
:1037D0000F9211248F939F938091E1009091E100CB
:1037E000937F9093E10083FF0FC01092E90091E076
:1037F0009093EB001092EC0092E39093ED00109206
:10380000140398E09093F00082FF22C093E090931D
:10381000E9009091F200992319F09AE39093E8005F
:103820009091AD02992341F09091AD029150909307
:10383000AD02911101C05D9890911303992341F05D
:1038400090911303915090931303911101C0289804
:1038500084FF18C08091E2008E7E81608093E20038
:103860008091E1008F7E8093E1008091AE028E7E98
:1038700080618093AE029F918F910F900FBE0F9049
:103880001F90189580FFF7CF8091E2008E7E8061B7
:103890008093E2008091E1008E7E8093E100809130
:1038A000AE028E7E8160E5CF1F920F920FB60F920F
:1038B0001124CF92DF92EF92FF920F931F932F93D9
:1038C0003F934F935F936F937F938F939F93AF93A8
:1038D000BF93EF93FF93CF93DF93CDB7DEB76C9792
:1038E000DEBFCDBF1092E9008091E80083FF25C0C4
:1038F00068E0CE0145960E941C0882EF8093E800A4
:103900008D8987FF39C09091E80090FFFCCF982FF8
:10391000907609F034C19E894F89588D2F89F88C93
:10392000911131C0803861F58091AF028093F10030
:103930001092F1008EEF8093E8006C960FB6F89429
:10394000DEBF0FBECDBFDF91CF91FF91EF91BF9151
:10395000AF919F918F917F916F915F914F913F9127
:103960002F911F910F91FF90EF90DF90CF900F90CC
:103970000FBE0F901F9018959EEF9093E800C7CF51
:103980001092F100D5CF913059F48111D3CF41304D
:10399000510581F68091AF028D7F8093AF02CACF2F
:1039A000933049F48111C6CF4130510519F6809109
:1039B000AF028260F2CF953041F48091E80080FF41
:1039C000FCCF20682093E300B5CF963009F0A9C062
:1039D0000B8D1C8D22E01092E9001092AB02109228
:1039E000AA02F2122EC01092A9021092A8020E94FE
:1039F000EB071F8299E09983FA8291E09E8390EA17
:103A000098879AEF99872091AA023091AB02275F9D
:103A10003F4F3C832B838D831092E9001092AB02C1
:103A20001092AA021093A9020093A80249E050E064
:103A3000BE016F5F7F4F80E00E94C5070E94EB07C9
:103A400079CF1093A9020093A8020E948107DC019C
:103A500012960D911C910115110509F451C1D8015F
:103A6000ED91FC910480F581E02DBE016B5E7F4FEE
:103A7000C8010995009709F03EC1F801008511853C
:103A8000EACFF3E0FF120EC08F89882309F440C00B
:103A9000823061F440E86DE080EF98E00E94EF1F13
:103AA000811148CF81E28093EB0047CF813029F428
:103AB00040E86BE084EE98E0F1CF833099F70E9404
:103AC0008107DC011296ED90FC908E010F5F1F4F75
:103AD0006801E114F10479F0D701ED91FC910680C1
:103AE000F781E02DB801C7010995080F111DF701F5
:103AF000E084F184EECFD8011C92F6010190002001
:103B0000E9F73197BF016C197D0940E0C601C6CFC6
:103B10006EEC78E0FB01449150E080E80E94C5071C
:103B200009CF973009F4BECF983021F481E080931B
:103B3000F10000CF993009F0FDCE837009F0B2CFCB
:103B4000ECE5F1E081E031E096E32191222371F090
:103B50008093E9003093EB00DF0111972C912093C3
:103B6000EC009093ED008F5F873079F78EE78093BC
:103B7000EA001092EA008F8980931403DBCE8B8DCC
:103B80009C8D1092E9001092AB021092AA029093C1
:103B9000A9028093A802898D811192C08E899D8986
:103BA000913A49F4813209F07DCF47E050E064E07A
:103BB00071E080E0B3CF913209F074CF833269F4C1
:103BC0008F89988DB0E0A0E080930001909301016F
:103BD000A0930201B0930301ADCE803269F48091CD
:103BE000E80082FFFCCF67E084E091E00E941C08BF
:103BF0008BEF8093E8009ECE823209F09BCE8F89B6
:103C000080930B01EEEFFFE7859194918B3F9C4DE4
:103C100051F1E0E0F8E08091040190910501A0915C
:103C20000601B0910701803B9440A105B105F1F474
:103C300080910B0180FD1AC0EE3F8AE0F80789F5FC
:103C400087E797E791838083809160008093AC023F
:103C500088E19BE00FB6F894A895809360000FBEB2
:103C60009093600067CEEEEFFAE0D5CF808191812E
:103C70008737974709F05ECEA895809160008861EC
:103C8000809360008091AC0280936000EE3F2AE058
:103C9000F20789F08091FE0A9091FF0A9183808358
:103CA00049CE808191818737980751F29093FF0A1E
:103CB0008093FE0AC5CF1092FF0A1092FE0A3ACEF8
:103CC0000E948107DC0112960D911C9101151105CE
:103CD00009F4E8CED801ED91FC910190F081E02D3E
:103CE000BE016B5E7F4FC8010995811123CEF8019B
:103CF00000851185EBCF181619060CF41BCED2CE19
:103D0000F1E0FF12BECE62ED78E004CF1F920F9279
:103D10000FB60F9211242F933F938F939F93AF93DE
:103D2000BF938091A0029091A102A091A202B091B4
:103D3000A30230919F0223E0230F2D3758F50196FF
:103D4000A11DB11D20939F028093A0029093A10218
:103D5000A093A202B093A3028091A4029091A50225
:103D6000A091A602B091A7020196A11DB11D80935A
:103D7000A4029093A502A093A602B093A702BF91BC
:103D8000AF919F918F913F912F910F900FBE0F9008
:103D90001F90189526E8230F0296A11DB11DD2CFC2
:103DA0001F920F920FB60F9211242F933F934F93B0
:103DB0005F936F937F938F939F93AF93BF93EF9393
:103DC000FF938091B900887F803609F44AC0F0F5EE
:103DD000883209F4A7C018F5803109F49BC0B8F403
:103DE000882309F4F9C0883009F494C0FF91EF9159
:103DF000BF91AF919F918F917F916F915F914F9103
:103E00003F912F910F900FBE0F901F901895883102
:103E100009F488C0803251F780937B0214C080344B
:103E200009F49DC040F48033B9F38833F9F68093E8
:103E30007B0285ECB0C0803509F485C0883509F473
:103E400096C0883499F60E94EC0AD0CF883909F4DC
:103E50008CC038F5883729F050F4883611F0803757
:103E600029F683E08093B70210927A0257C088380F
:103E700009F47BC0803919F0803809F0B7CF809100
:103E80007A02803208F071C0E0917A0281E08E0FF0
:103E900080937A028091BB00F0E0E65AFD4F808368
:103EA0003DC0803B39F0E0F4803A09F479C0883AAB
:103EB00009F09CCF84E08093B702109259021092CF
:103EC0005802E091B302F091B40209958091580232
:103ED00081110FC081E0809358021092380209C00E
:103EE000803C09F4A6CF883C09F4A3CF883B09F0B5
:103EF0007DCFE091590281E08E0F80935902F0E06E
:103F0000E85CFD4F80818093BB00909159028091C5
:103F1000580229C080919E028093BB0085EC80935B
:103F2000BC0064CF90919D0280919C02981758F537
:103F3000E0919D0281E08E0F80939D02F0E0E458B5
:103F4000FD4F8081E9CFE0919D0281E08E0F80934B
:103F50009D028091BB00F0E0E458FD4F808390917A
:103F60009D0280919C029817C8F285E8D8CFE09115
:103F70009D0281E08E0F80939D028091BB00F0E056
:103F8000E458FD4F80838091B60281115CCF81E0BF
:103F90008093B50284EA8093BC001092B70226CFCA
:103FA00085EC8093BC001092B70280917A02803237
:103FB00030F4E0917A02F0E0E65AFD4F1082609111
:103FC0007A0270E0E091B102F091B2028AE592E0EB
:103FD000099510927A020ACF10927B0234CFEF92A9
:103FE000FF920F931F93CF93DF93F82E192FE62E96
:103FF000042F81E0860F880F0E94970783E00E94BC
:104000009707CF2DD12FEC0EFD2EF11CCE15DF051D
:10401000B9F007FF13C0FE0184910E949707182F83
:1040200080E00E949707812321968111EFCFDF91D5
:10403000CF911F910F91FF90EF9008958881EDCF60
:1040400081E0F5CFE9E1F3E01382128248EE53E01C
:1040500060E070E0448355836683778386E691E071
:10406000918380832FEF3FEF35872487A9E6B3E064
:1040700013961C921E92129714964D935D936D9316
:104080007C93179788E791E011969C938E93E5E7D0
:10409000F3E01382128240E850E05583448380E4C9
:1040A00090E0978386835187408793878287168A1B
:1040B000158614861786168681E0858B848B338B54
:1040C000228B318B208B878B108E128E118E8AE87B
:1040D00091E091838083148E138EB68FA58F10A2EA
:1040E000178E8FEF84A385A386A387A382E080A782
:1040F00080E89AE1A6E0B0E085AB96ABA7ABB0AFA5
:1041000080EA96E8A1E0B0E081AF92AFA3AFB4AF90
:1041100080E586AF17AE0895CF93DF9300D000D02F
:10412000CDB7DEB7789484B5826084BD84B58160F4
:1041300084BD85B5826085BD85B5816085BD809172
:104140006E00816080936E001092810080918100EA
:1041500082608093810080918100816080938100E2
:1041600080918000816080938000809191008260C6
:104170008093910080919100816080939100809163
:1041800090008160809390008091C1008460809352
:10419000C1008091C10082608093C1008091C10004
:1041A00081608093C1008091C30081608093C300CF
:1041B0008091C00082608093C0008091C2008160C5
:1041C0008093C20080917A00846080937A0080910D
:1041D0007A00826080937A0080917A008160809377
:1041E0007A0080917A00806880937A00109214039C
:1041F0001092AF021092AE028091D700816080933E
:10420000D70080EA8093D80089B5806189BD89B5DF
:10421000826089BD09B400FEFDCF61E070E080E0FE
:1042200090E00E94290A8091D8008F7C8061809361
:10423000D8008091E000807F8093E0008091E100D1
:104240008E7E8093E1008DE08093E200559A209A63
:104250005D98289810920C0162E086E10E949E0908
:1042600062E085E10E949E0962E084E10E949E096D
:1042700062E083E10E949E0962E082E10E949E0961
:1042800062E088E00E949E0960E08DE00E949E0945
:1042900062E08BE00E949E0961E087E00E949E0937
:1042A00061E087E00E94700961E080E00E949E0961
:1042B00061E080E00E94700961E081E00E949E0957
:1042C00060E081E00E94700961E087E10E949E0940
:1042D00061E087E10E94700960E08AE00E949E0927
:1042E00060E089E00E949E0960E088E10E949E09EA
:1042F00060E08DE10E949E09809194039091950366
:10430000892B39F10E949B1780917B0390917C034C
:104310006091790370917A03813291050CF050C25B
:10432000AC014052510957FF02C04F5F5F4F559596
:1043300047956357710977FF02C06F5F7F4F75958F
:10434000679590E2E92EF12C03E710E02AE639E0C8
:104350004FC220917B0330917C03C901079697FDE2
:104360000796A3E095958795AA95E1F720917903A3
:1043700030917A03AC01429FC001439F900D529F40
:10438000900D11240E94842A9093950380939403A6
:10439000892B09F0B7CF62E370E080E090E00E94E3
:1043A000290A80E00E9439180E94D51760E0262E65
:1043B00060E0362E04E586E10E9447096C0185E144
:1043C0000E94470924E0CC0CDD1C2A95E1F733E07C
:1043D000880F991F3A95E1F7C82AD92A84E10E94EB
:1043E00047097C0183E10E9447094C0182E10E9458
:1043F0004709EE0CFF1CEE0CFF1C8C299D29E82AB6
:10440000F92A880C991C8E289F28C40140960E9486
:10441000FB27682F70E090E080E00E94242920E0D4
:1044200030E040EA51E40E9483286B017C01C40122
:10443000C0960E94FB27682F70E090E080E00E9409
:10444000242920E030E040EA51E40E9483282B0137
:104450003C0188E00E94470921E0892B09F420E013
:10446000209314010E94E00A4B015C012091030398
:1044700030910403409105035091060329833A8348
:104480004B835C838BE00E9447092091020321113A
:10449000AFC329813A814B815C81821A930AA40AB5
:1044A000B50A35EF831631E09306A104B10458F044
:1044B00021E0009709F020E030910103311189C318
:1044C000009709F4D0C38DE00E944709682F8EE160
:1044D0000E9470098AE00E94DA09BC01990F880BDA
:1044E000990B0E94262920E030E040E450E40E942D
:1044F000DB2920E030E040E85AE30E94DB2920E09D
:1045000030E048E452E40E9483282AE037ED43EA91
:104510005BE30E9483284B015C016091F40270917F
:10452000F50290E080E00E94242920E030E040E89D
:104530005BE30E94DB2920E030E040E05FE30E9483
:1045400012289B01AC01C501B4010E94DB294B017B
:104550005C018092F0029092F102A092F202B0927D
:10456000F30220E030E040E151E40E94D629181621
:104570000CF1A5019401C701B6010E947E2887FFB6
:1045800004C0809114018823A9F020E030E040EEBF
:104590005FE3C701B6010E94DB299B01AC01C501A5
:1045A000B4010E94D62918160CF067C3809114013B
:1045B000882319F081E08093FF021091FF021123FC
:1045C00019F080E00E94361789E00E94DA09BC01E8
:1045D000990F880B990B0E94262920E030E040E4D7
:1045E00050E40E94DB2920E030E040E85AE30E94DA
:1045F000DB2920E030E048E452E40E9483282AE0EE
:1046000037ED43E25CE30E9483284B015C0160913B
:10461000EE027091EF0290E080E00E94242920E0F9
:1046200030E040E85BE30E94DB2920E030E040E03E
:104630005FE30E9412289B01AC01C501B4010E94F6
:10464000DB294B015C018092EA029092EB02A0927E
:10465000EC02B092ED0220E030E040EA50E40E942B
:10466000D62918160CF1A5019401C301B2010E94CC
:104670007E2887FF04C0809114018823A9F020E0E0
:1046800030E040EE5FE3C301B2010E94DB299B01F1
:10469000AC01C501B4010E94D62918160CF027C33D
:1046A00080911401882319F091E09093FE02B0905C
:1046B000FE02BB2019F080E00E94361780911301A2
:1046C000882379F1111103C0BB2009F44AC3A30167
:1046D0009201C701B6010E94FB190E94E00AC09036
:1046E0000303D0900403E0900503F09006036C19D7
:1046F0007D098E099F09C0900D01D0900E01E090B8
:104700000F01F0901001C616D706E806F90648F426
:104710008091E102882329F08EEA0E948A0F10928C
:10472000130189E193E00E94E108181619060CF0C4
:1047300040C08091E002811115C089E193E00E94A0
:104740009F088093CC02863509F035C3B1E0B09361
:10475000E0028091CA029091CB0201969093CB0225
:104760008093CA028091E002882319F189E193E0E5
:104770000E94E10818161906E4F489E193E00E940A
:104780009F082091CA023091CB02F901E453FD4FFA
:104790008083C90101969093CB028093CA02409115
:1047A000CD02413120F48131910508F407C30E9404
:1047B000BB172114310409F4FECD0E940000FACD8C
:1047C000AC014054510957FF02C04F5F5F4F5595F0
:1047D00047956255710977FF02C06F5F7F4F7595EE
:1047E0006795E0E4EE2EF12C02E510E02AE43BE0D0
:1047F00085E793E00E94121682E0809397038091F0
:10480000920390919303892B09F4E1C08CE3809388
:1048100096031092B9021092B802109216031092E9
:1048200015031092B70281E08093B6021092B50290
:1048300061E082E00E94700961E083E00E947009FB
:104840008091B9008E7F8093B9008091B9008D7FEF
:104850008093B90088E48093B80085E48093BC001D
:1048600085E997E09093B4028093B30286E997E0DC
:104870009093B2028093B10280919D0387FD1EC088
:1048800061E00E949E0961E080919D030E94700991
:1048900061E070E080E090E00E94290A60E0809191
:1048A0009D030E9470096AE070E080E090E00E9441
:1048B000290A61E080919D030E9470098091920312
:1048C00090919303892B09F443C16091AA037091DD
:1048D000AB038091AC039091AD030E941D0B64E08B
:1048E0008AE199E00E94700E60917B03615085E738
:1048F00093E00E94250F64E086E199E00E94700E2B
:104900008091970360E1813009F064E185E793E0ED
:104910000E94250F64E082E199E00E94700E8FE80A
:104920008093B2038091790390917A038038910546
:1049300009F027C180917B0390917C03803491051D
:1049400009F034C180919703813009F018C18FE9D3
:104950008093B20392E199836AED85E793E00E9428
:10496000250F698185E793E00E94250F61E885E7BF
:1049700093E00E94250F6091B20385E793E00E94C7
:10498000250F69ED85E793E00E94250F809197033D
:1049900062E2813009F061EF85E793E00E94250F24
:1049A00066E08CE099E00E94700E809192039091F5
:1049B0009303892B09F403C16091AE037091AF0397
:1049C0008091B0039091B1030E941D0BE4CC61E093
:1049D00080919B030E949E0961E080919C030E944C
:1049E0009E0980919B03082E000C990BFC01E55B4E
:1049F000F64FE491F0E0EE0FFF1FE35CF64F2591D8
:104A000034913093A3032093A203FC01E25EF64F9E
:104A1000E491E093A80380919C03082E000C990B6D
:104A2000FC01E55BF64FE491F0E0EE0FFF1FE35C65
:104A3000F64FA591B491B093A503A093A403FC01F4
:104A4000E25EF64FE491E093A9038C91E82BEC939E
:104A50008091900390919103892B09F436C05FB740
:104A60005983F8948091B002811127C0ECE5F9E0F8
:104A70008491EFE2F9E09491E82FF0E0EE0FFF1F50
:104A8000E250F74FA591B491EC91E92321F461E054
:104A900081E10E94700961E081E10E949E098CB56C
:104AA00080618CBD8CB580648CBD61E08FE00E941C
:104AB0009E0961E080E10E949E098091B0028F5FB3
:104AC0008093B00289818FBFD7CE61E08091990336
:104AD0000E949E0961E080919A030E949E09809144
:104AE0009903082E000C990BFC01E55BF64FE4914D
:104AF000F0E0EE0FFF1FE35CF64F25913491309309
:104B00009F0320939E03FC01E25EF64FE491E09345
:104B1000A60380919A03082E000C990BFC01E55B1B
:104B2000F64FE491F0E0EE0FFF1FE35CF64FA59126
:104B3000B491B093A103A093A003FC01E25EF64FF1
:104B4000E491E093A7038C91E095E823EC9394CE55
:104B50008091900390919103892B31F08091B30360
:104B60009091B4030E94870FE091A403F091A503F4
:104B700090818091A903809589238083B0CE8FECAA
:104B8000E7CE80369105A9F480917B0390917C0358
:104B9000409791F480919703813031F480E18093C4
:104BA000B203A2E0A983D8CE8FEAF9CFB2E0B983ED
:104BB000D3CEE2E0E983D0CEF2E0F983CDCEE0912E
:104BC000A403F091A50380819091A903892B808390
:104BD000E2CB30910003231309C03091FF02311161
:104BE00005C03091FE02332309F46DCC20930003FD
:104BF000209101032223E1F1892BD1F58091FF025D
:104C0000811104C08091FE02882391F1109200036B
:104C1000109202031092FA021092FB021092FC0210
:104C20001092FD021092F6021092F7021092F80212
:104C30001092F90280911301811106C08FEA0E943F
:104C40008A0F51E0509313010E94E00A609303031E
:104C500070930403809305039093060380910003EF
:104C60000E94361730CC2091000341E02427BECFAC
:104C70001092FF021092FE02CBCFA5019401C70152
:104C8000B6010E947E2887FF98CC8091140188236A
:104C900009F493CC8090FA029090FB02A090FC0261
:104CA000B090FD0281149104A104B10459F40E9452
:104CB000E00A6093FA027093FB028093FC029093E7
:104CC000FD027BCC0E94E00AAB01BC0148195909E6
:104CD0006A097B098091110190911201B0E0A0E076
:104CE00084179507A607B70708F464CC66CCA5011E
:104CF0009401C301B2010E947E2887FFD8CC809125
:104D00001401882309F4D3CC8090F6029090F70226
:104D1000A090F802B090F90281149104A104B104AA
:104D200059F40E94E00A6093F6027093F7028093B0
:104D3000F8029093F902BBCC0E94E00AAB01BC01DF
:104D4000481959096A097B09809111019091120152
:104D5000B0E0A0E084179507A607B70708F4A4CC35
:104D6000A6CC80911401882309F411C10E94E00AA5
:104D70008090E6029090E702A090E802B090E902ED
:104D8000681979098A099B09653F71408105910578
:104D900008F4A3CCA3019201C701B6010E94FB193C
:104DA0000E94E00A6093E6027093E7028093E802B3
:104DB0009093E90292CC0E94BB17D4CC833091052A
:104DC00008F4D4CC4817190609F0D0CCECECF2E08A
:104DD00050E040E080E091914217530724F4892786
:104DE0004F5F5F4FF8CF8913CBC0EAEBF2E020E1D1
:104DF00011922A95E9F736E53093BA028091CE02F6
:104E00008093BC02823A09F491C0E0F4803A59F1EF
:104E1000813A09F466C06AE07EE089E193E00E948D
:104E200029084091CE0250E070E060E020E189E185
:104E300093E00E94D51860EF71E089E193E00E9451
:104E4000C618B5CC813B09F48EC0823B09F483C0FF
:104E5000803B09F781E00E9439180E94D517B4E021
:104E6000B093BB0271C04EE04093BB028FB1809300
:104E7000BD0283B139B12CB196B180793072832BE8
:104E80002074822B92959870892B8093BE028AE0C1
:104E90000E94DA099093BF028093C00289E00E94C9
:104EA000DA099093C1028093C20288E10E94DA0974
:104EB0009093C3028093C4028DE10E94DA0990931B
:104EC000C5028093C6020E948B178093C70240914F
:104ED000BB0250E06AEB72E089E193E00E945B0A5A
:104EE00066CC0093BB0243E050E06AEB72E089E1DC
:104EF00093E00E945B0A83EAD82EF12CE12CC701D3
:104F00000E94FB27C82E682F89E193E00E947A084F
:104F1000DC245FEFE51AF50A80E5E816F10479F77D
:104F20006D2D89E193E00E947A0841CC81E0909157
:104F3000CF02911101C080E08093000391E0909333
:104F40000203A4E0A093BB020E948B178093BD02D2
:104F500044E050E0BFCF8091CF0290E06091D10259
:104F600080960E9403288091CF026091D00290E049
:104F70000E9403280E94D517E4E0E093BB02E4CF2F
:104F80006CE17EE089E193E00E94290854CF0E9401
:104F9000E00A8090E2029090E302A090E402B090D8
:104FA000E502681979098A099B09653C7940810500
:104FB000910508F492CBA3019201C701B6010E94AA
:104FC000FB190E94E00A6093E2027093E30280936F
:104FD000E4029093E50281CB8AE891E09093760316
:104FE000809375038091940390919503009711F03D
:104FF0000C94202B0895F999FECF92BD81BDF89AAB
:10500000992780B50895262FF999FECF1FBA92BD32
:1050100081BD20BD0FB6F894FA9AF99A0FBE019699
:1050200008955058BB27AA270E9429280C949C2930
:105030000E948E2938F00E94952920F039F49F3F74
:1050400019F426F40C948B290EF4E095E7FB0C94EC
:105050008529E92F0E94AD2958F3BA176207730713
:105060008407950720F079F4A6F50C94CF290EF467
:10507000E0950B2EBA2FA02D0B01B90190010C0168
:10508000CA01A0011124FF27591B99F0593F50F480
:10509000503E68F11A16F040A22F232F342F4427D8
:1050A000585FF3CF469537952795A795F0405395D0
:1050B000C9F77EF41F16BA0B620B730B840BBAF0A0
:1050C0009150A1F0FF0FBB1F661F771F881FC2F70B
:1050D0000EC0BA0F621F731F841F48F4879577951F
:1050E0006795B795F7959E3F08F0B0CF9395880FD9
:1050F00008F09927EE0F9795879508950E946129EA
:1051000008F481E008950E9497280C949C290E943D
:10511000952958F00E948E2940F029F45F3F29F02C
:105120000C94852951110C94D0290C948B290E9440
:10513000AD2968F39923B1F3552391F3951B550BD2
:10514000BB27AA2762177307840738F09F5F5F4F5A
:10515000220F331F441FAA1FA9F335D00E2E3AF099
:10516000E0E832D091505040E695001CCAF72BD0B1
:10517000FE2F29D0660F771F881FBB1F2617370702
:105180004807AB07B0E809F0BB0B802DBF01FF2734
:1051900093585F4F3AF09E3F510578F00C94852963
:1051A0000C94D0295F3FE4F3983ED4F3869577952D
:1051B0006795B795F7959F5FC9F7880F911D9695ED
:1051C000879597F90895E1E0660F771F881FBB1F49
:1051D000621773078407BA0720F0621B730B840BF6
:1051E000BA0BEE1F88F7E09508950E94B52988F064
:1051F0009F5798F0B92F9927B751B0F0E1F0660F9B
:10520000771F881F991F1AF0BA95C9F714C0B130DB
:1052100091F00E94CF29B1E008950C94CF29672F17
:10522000782F8827B85F39F0B93FCCF3869577950A
:105230006795B395D9F73EF49095809570956195F3
:105240007F4F8F4F9F4F0895E89409C097FB3EF41E
:1052500090958095709561957F4F8F4F9F4F9923C3
:10526000A9F0F92F96E9BB279395F6958795779541
:105270006795B795F111F8CFFAF4BB0F11F460FF01
:105280001BC06F5F7F4F8F4F9F4F16C0882311F059
:1052900096E911C0772321F09EE8872F762F05C06D
:1052A000662371F096E8862F70E060E02AF09A9508
:1052B000660F771F881FDAF7880F9695879597F9FD
:1052C0000895990F0008550FAA0BE0E8FEEF161697
:1052D0001706E807F907C0F012161306E407F507EA
:1052E00098F0621B730B840B950B39F40A2661F05E
:1052F000232B242B252B21F408950A2609F4A14001
:10530000A6958FEF811D811D089597F99F6780E80D
:1053100070E060E008959FEF80EC089500240A9407
:105320001616170618060906089500240A94121680
:105330001306140605060895092E0394000C11F4B3
:10534000882352F0BB0F40F4BF2B11F460FF04C060
:105350006F5F7F4F8F4F9F4F089557FD9058440FB9
:10536000551F59F05F3F71F04795880F97FB991FC4
:1053700061F09F3F79F08795089512161306140681
:10538000551FF2CF4695F1DF08C01616170618060E
:10539000991FF1CF86957105610508940895E894E9
:1053A000BB2766277727CB0197F908950E946129CB
:1053B00008F48FEF08950E94EE290C949C290E9416
:1053C0008E2938F00E94952920F0952311F00C9435
:1053D00085290C948B2911240C94D0290E94AD2985
:1053E00070F3959FC1F3950F50E0551F629FF00138
:1053F000729FBB27F00DB11D639FAA27F00DB11D51
:10540000AA1F649F6627B00DA11D661F829F2227D9
:10541000B00DA11D621F739FB00DA11D621F839F60
:10542000A00D611D221F749F3327A00D611D231F36
:10543000849F600D211D822F762F6A2F11249F5784
:1054400050409AF0F1F088234AF0EE0FFF1FBB1F87
:10545000661F771F881F91505040A9F79E3F510546
:1054600080F00C9485290C94D0295F3FE4F3983E9A
:10547000D4F3869577956795B795F795E7959F5FF0
:10548000C1F7FE2B880F911D9695879597F9089582
:105490000E946129880B990B0895A1E21A2EAA1B7C
:1054A000BB1BFD010DC0AA1FBB1FEE1FFF1FA217D4
:1054B000B307E407F50720F0A21BB30BE40BF50BD1
:1054C000661F771F881F991F1A9469F7609570955A
:1054D000809590959B01AC01BD01CF010895EE0F21
:1054E000FF1F0590F491E02D0994A29FB001B39F96
:1054F000C001A39F700D811D1124911DB29F700DDD
:10550000811D1124911D08950F931F93CF93DF9355
:105510008230910510F482E090E0E091B703F091C1
:10552000B80330E020E0B0E0A0E0309799F4211516
:10553000310509F44AC0281B390B24303105D8F550
:105540008A819B816115710589F1FB0193838283B7
:10555000FE0111C040815181028113814817590712
:10556000E0F04817590799F4109761F012960C93E0
:10557000129713961C933296CF01DF91CF911F9112
:105580000F9108950093B7031093B803F4CF21153A
:10559000310551F04217530738F0A901DB019A0198
:1055A000BD01DF01F801C1CFEF01F9CF9093B8033E
:1055B0008093B703CDCFFE01E20FF31F8193919348
:1055C0002250310939832883D7CF2091B5033091F8
:1055D000B603232B41F42091170130911801309329
:1055E000B6032093B50320911501309116012115C2
:1055F000310541F42DB73EB74091190150911A0180
:10560000241B350BE091B503F091B603E217F307C5
:10561000A0F42E1B3F0B2817390778F0AC014E5F22
:105620005F4F2417350748F04E0F5F1F5093B603A6
:105630004093B503819391939FCFF0E0E0E09CCF3E
:10564000CF93DF930097E9F0FC0132971382128227
:10565000A091B703B091B803ED0130E020E01097BE
:10566000A1F420813181820F931F2091B5033091E5
:10567000B6032817390709F061C0F093B603E09329
:10568000B503DF91CF910895EA01CE17DF07E8F562
:105690004A815B819E0141155105B1F7E901FB8308
:1056A000EA8349915991C40FD51FEC17FD0761F4A6
:1056B000808191810296840F951FE90199838883E7
:1056C000828193819B838A83F0E0E0E012968D9142
:1056D0009C9113970097B9F52D913C911197CD01AD
:1056E0000296820F931F2091B5033091B6032817BD
:1056F000390739F6309751F51092B8031092B70375
:10570000B093B603A093B503BCCFD383C2834081CB
:105710005181840F951FC817D90761F44E5F5F4F01
:1057200088819981480F591F518340838A819B81C9
:10573000938382832115310509F0B0CFF093B8032C
:10574000E093B7039ECFFD01DC01C0CF138212822C
:10575000D7CF81E090E0F8940C94B52BDC0101C028
:105760006D9341505040E0F7089517E0CAE1D7E04B
:1057700004C0FE010E946F2A2196CB31D107C9F7E0
:04578000F894FFCFCB
:10578400FFFFFFFF00E100000000000001A0BB0DCF
:1057940000960001010000B90380000000003F00F2
:1057A40000C03F00004040000098400000804000DE
:1057B40000803F000010400000504000009840006E
:1057C40000B0400000D84000000041AD01150F0FAB
:1057D400000000000000008080808000C180810003
:1057E4000000000000007A085B0A9B089008E108AA
:1057F4009F08BD0800000000860B590B33174507AE
:10580400520B3F0B300B0000000066134D0833179A
:105814003217B90D45070B16E315FF15F315851659
:1058240045072C11EF10290D720D2C150F15971427
:1058340038146E616E00696E66006F7666002B35F3
:10584400563A202000412028005629002B31325698
:105854003A20003556204C696D3A20200041003131
:105864003256204C696D3A20004F4E004F46460098
:045874000D0A000019
:00000001FF
