:100000000C9420070C9448070C9448070C9448075C
:100010000C9448070C9448070C9448070C94480724
:100020000C9448070C9448070C94A51B0C94141CC2
:100030000C9448070C9448070C9448070C94480704
:100040000C9448070C9448070C9448070C944807F4
:100050000C9448070C9448070C9448070C94461ECF
:100060000C9448070C9448070C9448070C944807D4
:100070000C9448070C9448070C9448070C944807C4
:100080000C9448070C9448070C9448070C944807B4
:100090000C94901E0C9448070C9448070C94480745
:1000A0000C9448070C9448070C9448074445544561
:1000B00043544544204F4E202B3132560044455482
:1000C0004543544544204F4E202B355600FFFFFF3B
:1000D000FFFFFFFFFFFFFFFFFFFFFFFFFFFFFFFF30
:1000E000FFFFFFFFFFFFFFFFFFFFFFFFFFFFFFFF20
:1000F000FFFFFFFFF1F3FCC03C0FFFFFFFFFFFFF1F
:10010000FFFFFFFFE0F1F8C03C07FFFFFFFFFFC765
:10011000FFFFFFFFC079F9C03C03FFFFFFFFFF8334
:10012000FFFFFFFFCE79F9CFFCF3FFFFFFFFFF8357
:10013000FFFFFFFF9F38F1CFFCF3FFFFFFFFFF3909
:10014000FFFFFFFF9F3CF3CFFCF3FFFFFFFFFF7DAF
:10015000FFFFFFFF9F3CF3C07C03FFFFFFFFFE7C20
:10016000FFFFFFFF9F3CF3C07C07FFFFFFFFFEFE8A
:10017000FFFFFFFF9F3E67C07C0FFFFFFFFFFCFEFE
:100180007FFFFFFF9F3E67CFFCC7FFFFFFFFFDFF25
:100190007FFFFFFF9F3E67CFFCE7FFFFFFFFF9EF09
:1001A0003FFFFFFFCE7E07CFFCE3FFFFFFFFF9C756
:1001B0003FFFFFFFC07F0FC03CF3FFFFFFFFF3C710
:1001C0009FFFFFFFE0FF0FC03CF3FFFFFFFFF3C700
:1001D0009FFFFFFFF1FF0FC03CF9FFFFFFFFE7C7E5
:1001E000CFFFFFFFFFFFFFFFFFFFFFFFFFFFE7C79F
:1001F000CFFFFFFFFFFFFFFFFFFFFFFFFFFFCFC7A7
:10020000E7FFFFFFFFFFFFFFFFFFFFFFFFFFCFC77E
:10021000E7FFFFFFFFFFFFFFFFFFFFFFFFFF9FC79E
:10022000F3FFC7E7CF01F01F00F3E7003FFF9FC7D1
:10023000F3FF83E7CF01F01F00F1E7003FFF3FEF3F
:10024000F9FF03E7CF00F00F00F1E7003FFF3FFFAA
:10025000F9FF31E7CF3CF3CF3FF0E7F3FFFE7FFF3D
:10026000FCFE7BE7CF3CF3CF3FF0E7F3FFFE7FEFF1
:10027000FCFE7FE7CF3CF3CF3FF067F3FFFC7FC787
:10028000FC7E7FE7CF00F00F01F067F3FFFCFFC7B4
:10029000FE7E7FE7CF01F01F01F367F3FFFCFFEF66
:1002A000FE7E7FE7CF03F03F01F307F3FFFCFFFF84
:1002B000FE7E7FE7CF31F31F3FF307F3FFFC7FFFA5
:1002C000FC7E79E7CF39F39F3FF387F3FFFC000013
:1002D000007F31E38F38F38F3FF387F3FFFE000099
:1002E00000FF03F01F3CF3CF00F3C7F3FFFF000054
:1002F00001FF83F01F3CF3CF00F3C7F3FFFFFFFFC5
:10030000FFFFC7F83F3E73E700F3E7F3FFFFFFFF90
:10031000FFFFFFFFFFFFFFFFFFFFFFFFFFFFFFFFED
:10032000FFFFFFFFFFFFFFFFFFFFFFFFFF415458ED
:1003300032415420434F4E56455254455220312E9F
:1003400031320000000000003E5B4F5B3E3E6B4FD1
:100350006B3E1C3E7C3E1C183C7E3C181C577D5757
:100360001C1C5E7F5E1C00183C1800FFE7C3E7FF03
:100370000018241800FFE7DBE7FF30483A060E2696
:1003800029792926407F050507407F05253F5A3CEE
:10039000E73C5A7F3E1C1C08081C1C3E7F14227F31
:1003A00022145F5F005F5F06097F017F0066899509
:1003B0006A606060606094A2FFA29408047E0408F2
:1003C00010207E201008082A1C08081C2A08081E75
:1003D000101010100C1E0C1E0C30383E3830060E5B
:1003E0003E0E06000000000000005F000000070055
:1003F0000700147F147F14242A7F2A122313086411
:100400006236495620500008070300001C224100B4
:100410000041221C002A1C7F1C2A08083E080800F4
:100420008070300008080808080000606000201094
:100430000804023E5149453E00427F40007249494E
:1004400049462141494D331814127F10274545452F
:10045000393C4A4949314121110907364949493650
:10046000464949291E0000140000004034000000E5
:100470000814224114141414140041221408020117
:100480005909063E415D594E7C1211127C7F494943
:1004900049363E414141227F4141413E7F494949E0
:1004A000417F090909013E414151737F0808087FD6
:1004B00000417F41002040413F017F081422417FDD
:1004C000404040407F021C027F7F0408107F3E4175
:1004D00041413E7F090909063E4151215E7F0919CC
:1004E0002946264949493203017F01033F404040E4
:1004F0003F1F2040201F3F4038403F6314081463D3
:1005000003047804036159494D43007F414141028E
:1005100004081020004141417F04020102044040D0
:10052000404040000307080020545478407F28448E
:1005300044383844444428384444287F3854545478
:100540001800087E090218A4A49C787F0804047887
:1005500000447D40002040403D007F1028440000C2
:10056000417F40007C047804787C08040478384497
:10057000444438FC1824241818242418FC7C08044B
:100580000408485454542404043F44243C4040206C
:100590007C1C2040201C3C4030403C442810284417
:1005A0004C9090907C4464544C44000836410000C8
:1005B00000770000004136080002010204023C26D8
:1005C00023263C1EA1A161123A4040207A3854549F
:1005D0005559215555794122545478422155547822
:1005E0004020545579400C1E5272123955555559B8
:1005F000395454545939555454580000457C4100DD
:1006000002457D420001457C407D1211127DF0289B
:100610002528F07C545545002054547C547C0A090C
:100620007F4932494949323A4444443A324A484877
:10063000303A4141217A3A42402078009DA0A07D85
:100640003D4242423D3D4040403D3C24FF24244841
:100650007E4943662B2FFC2F2BFF0929F620C088EB
:100660007E090320545479410000447D41304848BC
:100670004A32384040227A007A0A0A727D0D1931D6
:100680007D2629292F28262929292630484D402032
:10069000380808080808080808382F10C8ACBA2F0E
:1006A000102834FA00007B000008142A14222214B7
:1006B0002A14085500550055AA55AA55AAFF55FFFA
:1006C00055FF000000FF00101010FF00141414FF6D
:1006D000001010FF00FF1010F010F0141414FC00B4
:1006E0001414F700FF0000FF00FF1414F404FC14BE
:1006F0001417101F10101F101F1414141F001010B7
:1007000010F0000000001F101010101F101010102B
:10071000F010000000FF101010101010101010FF4B
:1007200010000000FF140000FF00FF00001F101762
:100730000000FC04F414141710171414F404F4004B
:1007400000FF00F714141414141414F700F7141411
:1007500014171410101F101F141414F4141010F098
:1007600010F000001F101F0000001F14000000FC0C
:10077000140000F010F01010FF10FF141414FF14F8
:100780001010101F00000000F010FFFFFFFFFFF02F
:10079000F0F0F0F0FFFFFF0000000000FFFF0F0F80
:1007A0000F0F0F3844443844FC4A4A4A347E020250
:1007B0000606027E027E0263554941633844443C8A
:1007C00004407E201E2006027E020299A5E7A5991C
:1007D0001C2A492A1C4C7201724C304A4D4D303053
:1007E00048784830BC625A463D3E494949007E013E
:1007F00001017E2A2A2A2A2A44445F444440514A5D
:10080000444040444A51400000FF0103E080FF00A3
:100810000008086B6B083612362436060F090F06DF
:10082000000018180000001010003040FF01010007
:100830001F01011E00191D1712003C3C3C3C00002A
:10084000000000000103070F1F3F7F0080C0E0F0A1
:10085000F8FCFE070605040100080A0B0C0D090050
:100860000000002300260029002C002F00000000BB
:100870000200090F0000030401000C00000000004A
:10088000000000000000000000000000080B000253
:100890000202000009040000010202000005240019
:1008A00010010524010101042402060524060001AB
:1008B0000705810310004009040100020A0000003E
:1008C0000705020240000007058302400000040300
:1008D000090412010002EF020140412337800001A8
:1008E0000102030141726475696E6F204C4C430034
:1008F00041726475696E6F204D6963726F0000000C
:100900000000240027002A002D003000DB40A4A6B0
:100910002EAFDA0281DA1281DA02818F2000A1C8BB
:10092000D300408DAED580A804080201104080405D
:100930001020408040800802040180402010020105
:100940001080102040402000000000250028002BCF
:10095000002E003100040404040403040502020212
:100960000204030202020206060606060604040248
:10097000020204040000600000000000000000000B
:100980000000000000E00000000000000000000087
:1009900000000001E0000000000000000000000076
:1009A000000001F000000000000000000000000056
:1009B0000003F00000000000000000000000000044
:1009C00007F0000000000000000000000000000729
:1009D000F8000000000000000000000000000FF818
:1009E00000000003C0007E000001E0007F0FF8005F
:1009F000000003C000FE000001E000FFEFF800006F
:100A00000003C000FE000001E000FFFFF80000004E
:100A100003C000F00000000F007FFE7FC000000355
:100A2000C000F00000000F003FFE7FF83FF1FBCF59
:100A3000FCFEF3BC3DEFE01FFE7FFF7FFBFFDFFE10
:100A4000FEFFBC3DEFE01FC6FFFF7FFBFFDFFEFEAA
:100A5000FFBC3DEFE00FE3C7FE787BC3DE1EF0FF77
:100A6000BC3DEF0007FF87FC787BC3DE1EF0F83C3F
:100A70003DEF0001FFFFF0007BC3C01EF0F03C3DE6
:100A8000EF0001F37FE03FFBC3CFFEF0F03C3DEF12
:100A90000003E33F807FFBC3DFFEF0F03C3DEF004F
:100AA00007E73C00787BC3DE1EF0F03C3DEF00071B
:100AB000FFBE00787BC3DE1EF0F03C3DEF0007FF79
:100AC000FE00787BC3DE1EF0F03C3DEF000FFFFE22
:100AD000007FFBFFDFFEF0F03FFDEFE00FFFFF00C8
:100AE0007FFBFFDFFEF0F03FFDEFE00FF9FF003E80
:100AF00079F9CF9EF0F01F3DE7E01FF1FF00000005
:100B00000000000000000000001F80FF007FFFFFCA
:100B1000FFFFFFFFFFFFFFE01C007F007FFFFFFFE5
:100B2000FEB46D888D18E000001F007FFFFFFFFE00
:100B300095AD7DB577E000000F007FFFFFFFFEA5BC
:100B4000AD9D8D19E0000006007FFFFFFFFEB5ADF3
:100B5000EDB57EE000000000000180000000000014
:100B600000000000038000000000000000000007FB
:100B7000C000000000000000000007C000000000EE
:100B800000000000000FC000000000000000000096
:100B90001FE00000000000000000001FE000000057
:100BA0000000000000003FE0000000000000000026
:100BB000003FF00000000000000000007FF0000097
:100BC00000000000001FF87FF0000000000000009F
:100BD0003FFE7FF0000000000000003FFF7FF000BC
:100BE0000000000000001FFFFBE00000000000000C
:100BF000000FFFF9FFC00000000000000FFFF9FF29
:100C0000F800000000000007FFF1FFFF00000000F7
:100C1000000003FC73FFFF80000000000001FE3FA6
:100C2000FFFF80000000000000FF1E0FFF0000001B
:100C3000000000007FFE1FFC000000000000003FDD
:100C4000FFFFF8000000000000000FDFFFE00000E1
:100C500000000000001F19FFC0000000000000009D
:100C60003F3CFF00000000000000007E7CF8000018
:100C70000000000000007FFE7C000000000000007B
:100C800000FFFFFC0000000000000000FFFFFE006E
:100C900000000000000000FFFFFE00000000000058
:100CA0000001FFEFFE0000000000000001FFCFFE8A
:100CB0000000000000000003FF07FE00000000002D
:100CC000000003FC07FE0000000000000003F0032A
:100CD000FE00000000000000018000FE0000000097
:100CE0000000000000007E00000000000000000086
:100CF000003E000000000000000000000C000000AA
:100D0000000000078000FC000003C0000000078016
:100D100001FC000003C0000000078001FC0000038C
:100D2000C0000000078001E00000001E0000000776
:100D30008001E00000001E007FE3F79FF9FDE778E7
:100D40007BDFC0FFF7FFBFFDFDFF787BDFC0FFF754
:100D5000FFBFFDFDFF787BDFC0F0F787BC3DE1FF03
:100D6000787BDE00F0F787BC3DE1F0787BDE0000A9
:100D7000F787803DE1E0787BDE007FF7879FFDE12C
:100D8000E0787BDE00FFF787BFFDE1E0787BDE00E7
:100D9000F0F787BC3DE1E0787BDE00F0F787BC3DF3
:100DA000E1E0787BDE00F0F787BC3DE1E0787BDEB8
:100DB00000FFF7FFBFFDE1E07FFBDFC0FFF7FFBFF4
:100DC000FDE1E07FFBDFC07CF3F39F3DE1E03E7B94
:100DD000CFC00000000000000000000000FFFFFF87
:100DE000FFFFFFFFFFFFFFC0FFFFFFFFFD68DB11FD
:100DF0001A31C0FFFFFFFFFD2B5AFB6AEFC0FFFF58
:100E0000FFFFFD4B5B3B1A33C0FFFFFFFFFD6B5B3A
:100E1000DB6AFDC0556E6B6E6F776E20436F6D6D34
:100E2000616E643A2000434845434B53554D20467C
:100E300041494C4544002200FF210000E21F5C278D
:100E400011241FBECFEFDAE0DEBFCDBF11E0A0E07E
:100E5000B1E0E4E6F6E502C005900D92A43FB107CB
:100E6000D9F723E0A4EFB1E001C01D92A63BB20781
:100E7000E1F717E0CFE1D7E004C02197FE010E941F
:100E8000DF29CE31D107C9F70E944B200C94252BC6
:100E90000C9400000895FC0180911303882311F144
:100EA0003FB7F89482E08093E9002091F200822F0E
:100EB00090E01816190614F481E090E0882339F0C8
:100EC000289A44E6409312034091F1004083222384
:100ED00039F02091F200211103C02BE62093E800A5
:100EE0003FBF08958FEF9FEF08952FB7F89483E0E9
:100EF0008093E9009091E800892F807295FF04C0EB
:100F00009091F20080E4891B2FBF089580910A031D
:100F100081110DC082E08093060384E08093070373
:100F2000109209031092080381E080930A0386E07F
:100F300093E00895089508954091AA025091AB025C
:100F40002091A8023091A90242175307B4F490915E
:100F5000E8009570E1F39091E80092FD19C080934C
:100F6000F1008091AA029091AB0201968F739927AC
:100F7000892B19F48EEF8093E8008091AA0290915A
:100F8000AB0201969093AB028093AA0281E0089590
:100F900080E00895DF92EF92FF920F931F93CF931B
:100FA000DF93D82E8A01EB017B01E40EF51ECE15EE
:100FB000DF0559F0D7FE12C0FE0184910E949C0704
:100FC00021968111F4CF0FEF1FEFC801DF91CF9170
:100FD0001F910F91FF90EF90DF9008958881EECFE1
:100FE0000F931F93CF93DF931F92CDB7DEB782E0AD
:100FF000898342E450E06CE878E080E80E94CA0708
:101000000E948607DC0112960D911C9101151105B5
:1010100089F0D801ED91FC910280F381E02DBE01B1
:101020006F5F7F4FC801099597FD04C0F8010085E7
:101030001185ECCF89810F90DF91CF911F910F9196
:101040000895615030F02091F100FC012083019659
:10105000F8CF289A84E6809312030895EF92FF92C6
:101060000F931F93CF93DF938C017B01D0E0C0E0FF
:10107000F701EC0FFD1F6491662361F0D801ED913B
:10108000FC910190F081E02DC8010995892B11F0A8
:101090002196EECFCE01DF91CF911F910F91FF905E
:1010A000EF900895AF92BF92CF92DF92EF92FF92AE
:1010B0000F931F93CF93DF936C017B018B01040F80
:1010C000151FEB015E01AE18BF08C017D10759F01C
:1010D0006991D601ED91FC910190F081E02DC6015E
:1010E0000995892B79F7C501DF91CF911F910F9158
:1010F000FF90EF90DF90CF90BF90AF900895CF9387
:10110000DF931F92CDB7DEB76983DC01ED91FC91CF
:101110000280F381E02D41E050E0BE016F5F7F4F20
:1011200009950F90DF91CF91089583E08093E900B6
:101130008091F200882319F08AE38093E8000895F3
:101140000E94750790E00895CF93DF931F92CDB76B
:10115000DEB7FC018485958597FD08C02FEF3FEF32
:10116000358724870F90DF91CF910895CE010196A6
:101170000E944B07019719F4898190E0F3CF8FEF1C
:101180009FEFF0CF0F931F93CF93DF931F92CDB7B5
:10119000DEB78C01FC018485958597FF0BC0CE01DD
:1011A00001960E944B07019771F4898190E0F80144
:1011B00095878487F801848595850F90DF91CF917D
:1011C0001F910F9108958FEF9FEFF1CFFC01848560
:1011D000958597FD0BC09FB7F89482E08093E90056
:1011E0008091F2009FBF90E0019608959FB7F89418
:1011F00082E08093E9008091F2009FBF90E0089523
:1012000081508F3008F047C0E82FF0E0E65FF64FDE
:101210000C94DF2927092B0919091F0923094B09F8
:101220004B094B092E09340938093C0942094B097D
:101230004609809180008F77809380000895809187
:1012400080008F7DF9CF80918000877FF5CF84B5B6
:101250008F7784BD089584B58F7DFBCF80919000FA
:101260008F77809390000895809190008F7DF9CFC3
:1012700080919000877FF5CF8091C0008F77809319
:10128000C00008958091C0008F7DF9CF8091C20089
:10129000877F8093C2000895CF93DF93282F30E09B
:1012A000F901E359F74F8491F901E85DF64FD491C4
:1012B000F901EB5AF64FC491CC23A1F081110E94A1
:1012C0000009EC2FF0E0EE0FFF1FE15AF74FA59158
:1012D000B491EC91ED2381E090E009F480E0DF919E
:1012E000CF91089580E090E0FACF1F93CF93DF93E2
:1012F000282F30E0F901E359F74F8491F901E85DB7
:10130000F64FD491F901EB5AF64FC491CC23A9F0D2
:10131000162F81110E940009EC2FF0E0EE0FFF1F45
:10132000E95BF64FA591B4918FB7F894EC91111148
:1013300008C0D095DE23DC938FBFDF91CF911F9142
:101340000895DE2BF8CFCF93DF9390E0FC01E85DAA
:10135000F64F24918B5A964FFC0184918823C9F053
:1013600090E0880F991FFC01E250F74FA591B491CE
:10137000FC01E95BF64FC591D49161110DC09FB797
:10138000F8948C91209582238C938881282328833C
:101390009FBFDF91CF910895623051F49FB7F894C9
:1013A0003C91822F809583238C93E8812E2BEFCF65
:1013B0008FB7F894EC912E2B2C938FBFEACF82310C
:1013C00008F08251E82FF0E0ED5AF74FE491909148
:1013D0007B008E2F880F880F80729F7D892B8093D2
:1013E0007B0080910C0120E4829FC0011124E770F2
:1013F000E82BE0937C0080917A00806480937A00EF
:1014000080917A0086FDFCCF8091780090917900E0
:1014100008953FB7F8948091A4029091A502A091FD
:10142000A602B091A70226B5A89B05C02F3F19F0D0
:101430000196A11DB11D3FBFBA2FA92F982F882754
:10144000BC01CD01620F711D811D911D42E0660F2F
:10145000771F881F991F4A95D1F708958F929F9201
:10146000AF92BF92CF92DF92EF92FF924B015C015D
:101470000E94090A6B017C010E94090A6C197D090E
:101480008E099F09683E734081059105A8F321E00C
:10149000821A9108A108B10888EEC80E83E0D81E10
:1014A000E11CF11C81149104A104B10429F7FF90FF
:1014B000EF90DF90CF90BF90AF909F908F90089566
:1014C0008F929F92AF92BF92CF92DF92EF92FF9254
:1014D0000F931F93CF93DF936C017B018A0180915F
:1014E0000B01882309F45CC080911303882309F45D
:1014F00057C08091AE0280FF05C08091E0008260FD
:101500008093E000E801B12C8AEFA82E93E0892EA9
:101510002AE3922E209711F4BB20D9F10E9475077F
:1015200081110AC0AA94AA20D9F161E070E080E09C
:1015300090E00E942E0AEECF8C171D0611F00CF0E1
:101540008C2F9FB7F8948092E9002091E80025FD48
:1015500002C09FBFDFCF282F30E0C21BD30BF701A3
:10156000815020F041914093F100FACFE20EF31E3A
:10157000BB2021F09092E800B12CEBCF8091E800E5
:1015800085FDE7CF9092E800BB24B394209709F340
:10159000F3CF5D9A84E68093AD02101611063CF0FD
:1015A00081E090E0F6019383828310E000E0C801BF
:1015B000DF91CF911F910F91FF90EF90DF90CF902F
:1015C000BF90AF909F908F9008952FB7F89460913F
:1015D000A0027091A1028091A2029091A3022FBF5C
:1015E000089585ED8093BC008091BC0084FDFCCF04
:1015F0001092B702089520915802260F3327331F07
:1016000021323105ECF42091B702FC0190E080E03A
:10161000243069F082E00895A09158022191AC0134
:10162000485C5D4FA40FB52FB11D2C930196861712
:1016300098F380915802680F6093580280E00895F3
:1016400081E008959B01AC0160E074E284EF90E0DA
:101650000E94BD29205131094109510956954795EC
:10166000379527952093B8000895E091B9028091AD
:10167000B802E81730F4F0E0E85EFD4F808190E0BA
:1016800008958FEF9FEF08959091B9028091B8026D
:101690002FEF3FEF981748F4E92FF0E0E85EFD4F99
:1016A000208130E09F5F9093B902C9010895809135
:1016B000B8029091B902891B990B0895CF92DF92DD
:1016C000EF92FF920F931F93CF93DF937C01CB0197
:1016D0008A0120911703222389F0EB016B01C40ECC
:1016E000D51ECC15DD0569F06991D701ED91FC910E
:1016F0000190F081E02DC7010995F3CF642F0E947E
:10170000FB0AC801DF91CF911F910F91FF90EF90DD
:10171000DF90CF900895CF93DF931F92CDB7DEB7C0
:101720006983209117032223F9F0209114032032BA
:1017300058F021E030E0FC013383228390E080E028
:101740000F90DF91CF91089580911503E82FF0E07D
:10175000E850FE4F998190838F5F809315038093AB
:10176000140381E090E0ECCF61E0CE0101960E948D
:10177000FB0AF7CF2091140381E0213208F044C026
:101780008091B7028111FCCF8091160392E0909373
:10179000B70291E09093B6029FEF90937B02109274
:1017A0009D0220939C02A8EFB1E0ECE7F2E090E00C
:1017B000291331C010929E0290919E02880F892BAE
:1017C00080939E028091B502813049F51092B50256
:1017D00080919E028093BB008091BC0083FDF8CF76
:1017E00085EC8093BC008091B7028230E1F3809158
:1017F0007B028F3FB1F080917B028032A1F080911B
:101800007B02803391F084E0109215031092140350
:101810001092170308953D9131939F5FC9CF85EED4
:10182000E0CF80E0F1CF82E0EFCF83E0EDCFEF9229
:10183000FF920F931F93CF93DF93EC01EC80FD8019
:101840006E157F050CF070C057FF04C0240F351FC4
:1018500050E040E08E819F81FA01E20FF31F8E1766
:101860009F071CF49C01241B350B121613060CF069
:101870005BC0922F842F8695869586958E9DD0018C
:101880008F9DB00D11246A0F7B1FAE8DBF8DA60FEB
:10189000B71F477049F188E0841B482F682F70E01C
:1018A000FB01E55BF74FE491281708F063C0621B6A
:1018B00071092FEF30E002C0359527956A95E2F760
:1018C000E2230130110539F0B0F10230110561F564
:1018D0008C91E82702C08C91E82BEC93941720F1AF
:1018E0002C813D81A20FB31FE92FE41BE83078F073
:1018F0000230110521F58E2F9C9190959C932C819F
:101900003D81A20FB31F88508830B0F7E770EE23F7
:1019100059F0F0E0ED5BF74FE49101301105F9F07B
:1019200010F10230110519F1DF91CF911F910F9144
:10193000FF90EF900895E0958C91E823CECF81E061
:101940000115110509F480E081959E2F8C932C815F
:101950003D81A20FB31F98509830C0F7D7CF8C911C
:10196000E82BEC93E1CFE0958C91E823FACF8C91B2
:10197000E827F7CF0130110509F4ADCFE0F20230CE
:10198000110509F4A5CFAE0DBF1DAECF0F931F9368
:10199000CF93DF9377FF04C0260F371F70E060E01E
:1019A000DC011496CD91DC91FB01E20FF31FCE1701
:1019B000DF071CF49E01261B370B121613064CF58D
:1019C000FA0157FD3796A3E0F595E795AA95E1F75B
:1019D000EC9FD001ED9FB00DFC9FB00D11246A0F5C
:1019E0007B1FDC015E96ED91FC91E60FF71F4770BF
:1019F000552781E090E001C0880F4A95EAF7482F0B
:101A00000130110559F0A8F02E0F3F1F02301105CB
:101A1000E1F0DF91CF911F910F9108952E0F3F1F9D
:101A2000E217F307B1F38191DF011197842B8C93B7
:101A3000F7CF80952E0F3F1FE217F30751F39191D7
:101A4000DF01119798239C93F7CFE217F30709F36F
:101A50008191DF01119784278C93F7CF0F931F9308
:101A6000FA01DC0155964C9155974230E9F043302C
:101A7000A1F1413061F514964D915C91DA01AE1BF4
:101A8000BF0BFD01E21BF30B77FD0BC0DC011696CB
:101A90004D915C916417750724F4AB01BF010E945E
:101AA000C60C1F910F91089514964D915C91DA0127
:101AB000A61BB70BBD0161507109DC0116964D9153
:101AC0005C91DA01AE1BBF0BFD01E21BF30B77FD4E
:101AD000E8CFAF010E94170CE4CF16964D915C91B0
:101AE000DA01A61BB70BBD0161507109CDCF0F9371
:101AF0001F93FA01DC0155964C9155974230A9F09D
:101B0000433091F1413019F514964D915C91DA0111
:101B1000AE1BBF0BFD013197F7FD04C0AB01BF0148
:101B20000E94170C1F910F91089514964D915C918E
:101B3000DA01A61BB70BBD01DC0116964D915C9135
:101B4000DA01AE1BBF0BFD013197621B730BF7FD72
:101B5000E9CFDC0116964D915C91E417F50714F777
:101B6000AF010E94C60CDECF16964D915C91DA0152
:101B7000A61BB70BBD01621B730BCECFFC0177FD1B
:101B800064C080859185681779070CF05EC057FDA9
:101B90005CC082859385481759070CF056C085892B
:101BA0008230B1F0833029F1813041F48481958114
:101BB000841B950BAB01BC016150710921303105CB
:101BC00009F108F443C02230310509F463C00895D7
:101BD00084819581DC01A61BB70BBD0161507109A1
:101BE00086819781DC01A41BB50BAD0141505109E1
:101BF000E5CF86819781861B970BBA01AC014150D6
:101C00005109DCCFCA0157FD0796A3E0959587954A
:101C1000AA95E1F7A481B5818A9F90018B9F300D31
:101C20009A9F300D1124620F731F068CF78DE02DE3
:101C3000E60FF71F4770552721E030E001C0220F63
:101C40004A95EAF78081822B80830895CA0157FD67
:101C5000079633E0959587953A95E1F7A481B5818C
:101C60008A9F90018B9F300D9A9F300D1124620F37
:101C7000731F068CF78DE02DE60FF71F4770552771
:101C800081E090E001C0880F4A95EAF78095908145
:101C90008923DACFCA0157FD079623E095958795EA
:101CA0002A95E1F7A481B5818A9F90018B9F300D21
:101CB0009A9F300D1124620F731F068CF78DE02D53
:101CC000E60FF71F4770552721E030E001C0220FD3
:101CD0004A95EAF780818227B7CF08958EBD00002C
:101CE0000DB407FEFDCF8EB50895FF920F931F939D
:101CF000CF93DF93F82ED92FC62F80919003909128
:101D00009103009709F452C02091940331E030937D
:101D10001703209316031092150310921403DC018D
:101D2000ED91FC910190F081E02D60E009950F2D7F
:101D30001D2FD1E0FF24F394C15080919003909126
:101D40009103CF3F61F1D032C8F00E94BA0B80916D
:101D500090039091910320919403F09217032093A4
:101D600016031092150310921403DC01ED91FC91FF
:101D70000190F081E02D60E00995D1E08091900321
:101D800090919103F8016491DC01ED91FC91019037
:101D9000F081E02D0995DF5F0F5F1F4FCDCFDF9101
:101DA000CF911F910F91FF900C94BA0BE091A0037B
:101DB000F091A10390818091A6038095892380836F
:101DC0000F2D1D2FC15008F438C0F80184912091C7
:101DD0008E0330918F03232B29F00E946E0E0F5F2C
:101DE0001F4FF0CF28E030E040E8E0919C03F091F5
:101DF0009D039091A403582F5423D9F05081952B23
:101E00009083E0919E03F0919F0390815091A503F0
:101E1000952B9083E0919E03F0919F0350819091C8
:101E2000A503909595239083469521503109E9F6B5
:101E3000D6CF508190959523E3CFDF91CF911F911D
:101E40000F91FF9008951F93CF93DF93EC018C8D3A
:101E50009D8D009721F1162F28A131E030931703B3
:101E6000209316031092150310921403DC01ED91D8
:101E7000FC910190F081E02D60E009958C8D9D8DA5
:101E8000DC01ED91FC910190F081E02D612F09952D
:101E90008C8D9D8DDF91CF911F910C94BA0BACA5C9
:101EA000BDA59C918AA9809589238C938A8D9B8D51
:101EB000892B31F0862FDF91CF911F910C946E0EFC
:101EC00028E030E080E8A8A5B9A598A9462F4823C6
:101ED000C1F04C91942B9C93AAA5BBA59C9149A9B8
:101EE000942B9C93AAA5BBA54C9199A9909594235A
:101EF0009C9386952150310931F7DF91CF911F9145
:101F000008954C9190959423E6CF8CBD9DBD089586
:101F1000CF93C82F8091900390919103892B01F169
:101F20006091AA037091AB038091AC039091AD03D3
:101F30000E94220B6C2F84E793E00E94230F809174
:101F4000900390919103892B11F16091AE037091F0
:101F5000AF038091B0039091B103CF910C94220B09
:101F600080918E0390918F03892B31F08091A8038B
:101F70009091A9030E94850FE091A203F091A30321
:101F800090818091A703809589238083D3CFE091AE
:101F9000A203F091A30380819091A703892B8083F2
:101FA000CF910895EF92FF920F931F93CF93DF93FA
:101FB0008091900390919103892B09F485C06091E1
:101FC000AA037091AB038091AC039091AD030E9482
:101FD000220B65E086E39EE00E94750E6091780317
:101FE000615084E793E00E94230F20917A0330919F
:101FF0007B03C901079697FD079623E09595879582
:102000002A95E1F72091780330917903829F80012E
:10201000839F100D929F100D1124C0919203D091B7
:10202000930380919003909191030C0F1D1F0097D3
:1020300009F47AC02091940331E030931703209380
:1020400016031092150310921403DC01ED91FC911C
:102050000190F081E02D60E40995FF24F394EE24D3
:10206000E39480919003909191030C171D0709F45C
:1020700042C0BFE1BF15D0F40E94BA0B809190031B
:102080009091910320919403E092170320931603FB
:102090001092150310921403DC01ED91FC91019054
:1020A000F081E02D60E40995FF24F3948091900382
:1020B000909191036991DC01ED91FC910190F08187
:1020C000E02D0995F394CDCF80918E0390918F03ED
:1020D000892B31F08091A8039091A9030E94850F6C
:1020E000E091A203F091A30390818091A7038095D2
:1020F000892380836ECF0E94BA0B809190039091C8
:102100009103892B09F451C06091AE037091AF0324
:102110008091B0039091B103DF91CF911F910F9106
:10212000FF90EF900C94220BE091A003F091A1039B
:1021300080819091A603892B80830C171D07E9F2FB
:10214000899120918E0330918F03232B19F00E94E7
:102150006E0EF3CF28E030E040E8E0919C03F09170
:102160009D039091A403582F5423D9F05081952BAF
:102170009083E0919E03F0919F0390815091A5037D
:10218000952B9083E0919E03F0919F035081909155
:10219000A503909595239083469521503109E9F642
:1021A000CCCF508190959523E3CFE091A203F0919D
:1021B000A30380819091A703892B8083DF91CF9126
:1021C0001F910F91FF90EF9008951F93CF93DF938E
:1021D000EC01162F8C8D9D8D892BC9F06EA97FA9DE
:1021E00088AD99AD0E94220B66EA111167EACE0113
:1021F0000E94230F8C8D9D8D892BC9F06AAD7BAD1C
:102200008CAD9DADDF91CF911F910C94220B8A8DE7
:102210009B8D892B21F08CA99DA90E94850FEEA58D
:10222000FFA590818BA9809589238083DDCFEEA5C2
:10223000FFA580819BA9892B8083DF91CF911F917E
:1022400008950895FC016370658B848195812681D2
:102250003781613039F0633029F091878087338787
:1022600022870895318720879387828708952F9248
:102270003F924F925F926F927F928F929F92AF9216
:10228000BF92CF92DF92EF92FF920F931F93CF9363
:10229000DF93CDB7DEB769970FB6F894DEBF0FBEF8
:1022A000CDBF998F888F5B011A01D22E1F830E83B9
:1022B0003701C982DC0158962D913C91599721151F
:1022C000310509F004C118968D919C9119976817F2
:1022D00079070CF0C0C11A968D919C911B974817F5
:1022E00059070CF0B8C18C2C912CFB0126E0C29E42
:1022F000E00DF11D1124F987E8871E161F060CF06A
:10230000AAC1A40193E0440F551F9A95E1F75D8798
:102310004C87CA01820D931D181619060CF09BC13B
:1023200057968C91811104C05FEA5D1508F4D3942F
:10233000A88DB98DED91FC9111970284F385E02D64
:10234000CD010995F5013596F98BE88BBB82AA8200
:10235000250183E493E08A199B099C0145E0D49E02
:10236000200D311D11243B8B2A8BEA89FB89E40D5A
:10237000F51D24913D822C82D12CC12C622F70E05E
:102380007F876E87E88DF98DA081B18120FF7CC0A9
:10239000F981F13009F069C01C96ED91FC912E8114
:1023A0003F81A1014C0D5D1DB201888D998D09956C
:1023B000EE85FF85F595E7952E2F4FEFC41AD40AC9
:1023C0006C817D81680D791D7D836C8378E0C716F3
:1023D000D104A1F68FEF481A580AAA81BB81A80D33
:1023E000B91DBB83AA83E889F989E415F50509F0CD
:1023F000BCCF2E813F8126153705A9F0A88DB98D58
:10240000ED91FC91B981B13009F051C0B5016B5F1C
:102410007F4F0088F189E02D830128E030E0A101A1
:10242000888D998D0995A88DB98DED91FC911197A5
:102430000688F789E02DCD0169960FB6F894DEBFC6
:102440000FBECDBFDF91CF911F910F91FF90EF9005
:10245000DF90CF90BF90AF909F908F907F906F90C4
:102460005F904F903F902F9009941E96ED91FC91B4
:10247000EE80FF80840194014C815D816A817B81C3
:10248000888D998D099594CF2E813F81261537052A
:1024900009F48ECF3981313029F41C96ED91FC91ED
:1024A00093017FCF1E96ED91FC917301E3CF688578
:1024B0007985681979090684F785E02D73010C8503
:1024C0001D859401A101888D998D0995ACCFF901E5
:1024D00034969491329745915491D91AB7E0DB9E86
:1024E000400D511D1124F90125913491398B288B10
:1024F000FA0145905490FA01329664903196C49056
:1025000032961491319604913981323008F48AC0A0
:10251000E12E012E000CFF08402F002E000C550B61
:1025200059874887A88DB98DED91FC911197028448
:10253000F385E02DCD010995B9818B2E912CE89C76
:10254000C001E99C900DF89C900D1124FC01EA0D4E
:10255000FB1DFF87EE871C82D12C712C9B868A86FF
:102560009101200F311D07FD3A953D8B2C8BA50164
:10257000410F511D17FD5A955F8B4E8B7C1408F04F
:1025800052CF872D90E048855985480F591F6A859D
:102590007B85469F9001479F300D569F300D11243B
:1025A000D901A20DB31DBD87AC87EE85FF85FB83E6
:1025B000EA83B12CA12C2C893D89280F391F3B8B34
:1025C0002A8B8C818A0DA61408F040C0877041F4D4
:1025D000C2010196E889F989E40DF51DD4902C011A
:1025E000D7FE15C0A88DB98DED91FC91B981B130A0
:1025F000F1F40484F585E02D2E813F814A895B89C1
:102600006E897F896A0D7B1D888D998D0995DD0CFA
:10261000EFEFAE1ABE0A2A813B81280D391D3B839C
:102620002A83CFCF19861886F12CE12C7BCF068424
:10263000F785E02DEE80FF80840194014C855D8557
:102640006A817B81888D998D0995E1CF3C81360D1A
:102650003C83739493CF69960FB6F894DEBF0FBE98
:10266000CDBFDF91CF911F910F91FF90EF90DF9041
:10267000CF90BF90AF909F908F907F906F905F9022
:102680004F903F902F900895AF92BF92CF92EF92CC
:10269000FF920F931F93CF93DF93EC01262F888D2A
:1026A000998D009709F04FC06A30C9F41D861C86C9
:1026B0008C8998E0899F900111248E859F85820FD7
:1026C000931F9F878E8781E090E0DF91CF911F91CC
:1026D0000F91FF90EF90CF90BF90AF9008956D3025
:1026E00091F3CC888E898823C1F08C859D85E6E0A6
:1026F000CE9E800D911D1124488559854817590794
:1027000064F44E855F851D861C86F8E0CF9EC0016F
:102710001124840F951F9F878E87EA88FB8808897C
:1027200019894E855F856C857D85CE010E943711A4
:102730002C898C859D8536E0239F800D911D112469
:102740009D878C87C0CF6A3069F41D861C86FC018A
:102750003696E4912C898E859F85E29F800D911D90
:102760001124AFCF6D3009F4AECFFC013496349113
:10277000631708F4A8CF3196E491E61708F4A3CFC5
:10278000FC01329645915491E62FE31BFF0B37E095
:102790003E9F50013F9FB00C1124A40EB51EF501C1
:1027A000329634913196E4913323A1F1EE2391F1E5
:1027B000CC88F5013596E4914E89442301F10E2E23
:1027C000000CFF0BE30FF11DCE9EA001CF9E500D1C
:1027D00011246C857D85460F571F688579856417A0
:1027E00075076CF44E855F851D861C860696FC0178
:1027F0008491C89E400D511D11245F874E87EA8841
:10280000FB88088919894E855F856C857D85CE0199
:102810000E943711F5013496E4912C898C859D85B1
:10282000E29F800D911D11248BCF6F927F928F922A
:102830009F92AF92BF92CF92DF92EF92FF920F934F
:102840001F93CF93DF93EC016B015A0139014801CB
:10285000E881F9810284F385E02D0995E881F98109
:102860000288F389E02D87019301A501B601CE010D
:102870000995A501480D591D41505109E881F9817B
:102880000288F389E02D9301B601CE010995E88114
:10289000F9810088F189E02D9401A501B601CE01EE
:1028A0000995C60CD71CB60161507109E881F98100
:1028B0000088F189E02D9401A501CE010995E881F8
:1028C000F9810688F789E02DCE01DF91CF911F9124
:1028D0000F91FF90EF90DF90CF90BF90AF909F90BF
:1028E0008F907F906F9009946F927F928F929F92BA
:1028F000AF92BF92CF92DF92EF92FF920F931F930E
:10290000CF93DF935C01EB016A0149013801870134
:10291000DC01ED91FC916217730719F564167506D9
:102920002CF0962D872D3A01C92ED82E9601261906
:1029300037092F5F3F4F048CF58DE02DA301BE01B9
:10294000C5010995DF91CF911F910F91FF90EF90F5
:10295000DF90CF90BF90AF909F908F907F906F90BF
:1029600008954615570591F42617370724F0892D49
:102970004B01C22FD82F9E01281939092F5F3F4FD5
:10298000068CF78DE02DA601B401DACF0284F38521
:10299000E02D0995D501ED91FC910488F589E02D94
:1029A00083019401A601BE01C5010995D501ED91F0
:1029B000FC910688F789E02DC501DF91CF911F9129
:1029C0000F91FF90EF90DF90CF90BF90AF909F90CE
:1029D0008F907F906F900994EF92FF920F931F93C7
:1029E000DC011A960D911C911B9718962D913C9124
:1029F0001997ED91FC9100A0F1A1E02D7B0150E031
:102A000040E070E060E009951F910F91FF90EF901A
:102A100008954F925F926F927F928F929F92AF92A2
:102A2000BF92CF92DF92EF92FF920F931F93CF93BB
:102A3000DF936C012B015A0139014801DC01ED9152
:102A4000FC910284F385E02D0995E201640C751C6C
:102A5000D601ED91FC91C615D7055CF40088F1898B
:102A6000E02D87019401A501BE01C60109952196BB
:102A7000EFCF0688F789E02DC601DF91CF911F9136
:102A80000F91FF90EF90DF90CF90BF90AF909F900D
:102A90008F907F906F905F904F9009948F929F924C
:102AA000AF92BF92CF92DF92EF92FF920F931F935C
:102AB000CF93DF93EC015B014A016901E881F98161
:102AC0000284F385E02D099595012C0D3D1D2150C3
:102AD0003109E881F9810488F589E02D78018401C4
:102AE000A401B501CE010995E881F9810688F7892D
:102AF000E02DCE01DF91CF911F910F91FF90EF90CC
:102B0000DF90CF90BF90AF909F908F9009948F925D
:102B10009F92AF92BF92CF92DF92EF92FF920F936C
:102B20001F93CF93DF93EC015B014A0169017801A8
:102B3000E881F9810284F385E02D0995C80CD91C40
:102B4000860101501109E881F9810488F589E02D99
:102B50009501A401B501CE010995E881F9810688A6
:102B6000F789E02DCE01DF91CF911F910F91FF905A
:102B7000EF90DF90CF90BF90AF909F908F9009948F
:102B8000EF92FF920F931F93DC01ED91FC9100A057
:102B9000F1A1E02D09951F910F91FF90EF900895FD
:102BA0000F931F93DC01ED91FC91068CF78DE02DC6
:102BB00009951F910F9108950F931F93DC01ED91DB
:102BC000FC91048CF58DE02D09951F910F910895CE
:102BD000DC01ED91FC910084F185E02D09943F9298
:102BE0004F925F926F927F928F929F92AF92BF921D
:102BF000CF92DF92EF92FF920F931F93CF93DF93C9
:102C000000D000D0CDB7DEB75C013B016A014901BD
:102C1000280187E0480E511C93E0559447949A95FB
:102C2000E1F7CA018E0D9F1D9A838983F12CE12C57
:102C3000312C1C821B828B819C8187709927330CDD
:102C4000892B61F4EB81FC8183E0F595E7958A950A
:102C5000E1F7EE0DFF1DE80DF91D349037FE0AC0B7
:102C600021E030E0A6016B817C81660D771DC501F6
:102C70000E94E8158B819C8101969C838B830817A9
:102C80001907C9F69FEFC91AD90AE40CF51C898106
:102C90009A81C816D90669F60F900F900F900F9081
:102CA000DF91CF911F910F91FF90EF90DF90CF9028
:102CB000BF90AF909F908F907F906F905F904F905C
:102CC0003F9008952F923F924F925F926F927F9222
:102CD0008F929F92AF92BF92CF92DF92EF92FF922C
:102CE0000F931F93CF93DF9300D000D000D0CDB7C8
:102CF000DEB73C016A013E832D83FC82EB825801E2
:102D0000A41AB50AB7FE03C0B194A194B1088D808E
:102D10009E80861A970A97FE03C091948194910829
:102D20008A149B045CF0902F812F0D811E819D835E
:102D30008E839C2D8D2D6B01692F782F0C151D0511
:102D40005CF09D818E817E836D83692F782F902F1B
:102D5000812F8601C92ED82E1601201A310A2B0187
:102D60002D813E81421A530A57FE03C0519441946B
:102D70005108710137FE03C03FEFE31AF30AF594DF
:102D8000E7948D819E81861797075CF5A1E0B0E0FE
:102D9000BA83A983C016D1064CF1D301ED91FC9101
:102DA0000484F585E02D2B813C81A8016D817E8115
:102DB0008A149B041CF04D815E81B801C301099502
:102DC000E418F508F7FE0AC02D813E8189819A81B9
:102DD000280F391F3E832D83E20CF31C0F5F1F4F1A
:102DE000D9CF2FEF3FEF3A832983D4CF26960FB662
:102DF000F894DEBF0FBECDBFDF91CF911F910F9131
:102E0000FF90EF90DF90CF90BF90AF909F908F900A
:102E10007F906F905F904F903F902F90089508950E
:102E200090E080E00895882309F43FC060E080E0EE
:102E30000E94750960E081E00E94750961E087E108
:102E40000E94750960E087E00E94750962E370E006
:102E500080E090E00E942E0A61E080E00E94750907
:102E600061E081E00E94750960E087E10E947509D8
:102E700081E0809300030E94E50A6093E60270936C
:102E8000E7028093E8029093E9020E94E50A6093CA
:102E9000E2027093E3028093E4029093E50262E021
:102EA00070E080E090E00C942E0A61E087E00E94E0
:102EB000750960E080E00E94750960E081E00E9491
:102EC000750961E087E10E94750910920003089579
:102ED0002091BB0230E0EAEBF2E080E0AF014A5B18
:102EE0005240421753071CF491918927F7CF089558
:102EF00020917A0330917B03C901079697FD0796CD
:102F000023E0959587952A95E1F7209178033091F4
:102F10007903829FA001839F500D929F500D112431
:102F200070E060E080919203909193030C941E2BCB
:102F300088E193E00E94E608181619062CF488E14F
:102F400093E00E94A408F4CFECECF2E084E1DF010E
:102F50001D928A95E9F71092E0021092CB0210922E
:102F6000CA0208950E94E50A609302037093030366
:102F7000809304039093050384E090E00E946B2704
:102F80002AE0829FC00111249093120180931101C5
:102F900083E090E00E946B27882391F083E090E02B
:102FA0000E946B27282F30E0A0E6BAEE0E94E529A8
:102FB00060930D0170930E0180930F0190931001A7
:102FC00083E090E00E946B2791E08F3F09F490E04E
:102FD0009093E1028CE090E00E946B2790E0909348
:102FE000F7018093F6018DE090E00E946B2790E05E
:102FF0009093F5028093F4028EE090E00E946B279C
:1030000090E09093F5018093F4018FE090E00E94AE
:103010006B2790E09093EF028093EE020895FF9269
:103020000F931F93CF93DF93F82E90E080E00E94E0
:103030006B278D3A09F464C00BE411E0D0E0C0E0E6
:10304000FF2011F0CA3028F4F8016081CE010E94FF
:10305000732721960F5F1F4FC031D10589F710E00C
:1030600000E0C0E3D0E0912F88E0E0E0EE0FFF0B3E
:10307000292F2170E22B96958150C1F7E095E770DA
:1030800084E0E89FF0011124E55DFE4F20E030E090
:1030900040EA51E460817181828193810E944B29D1
:1030A0000E946528CE0180970E947327902F88E0A8
:1030B000E0E0EE0FFF0B292F2170E22B9695815057
:1030C000C1F7E095E37084E0E89FF0011124E55E2C
:1030D000FE4F20E030E040EA51E46081718182815E
:1030E00093810E944B290E946528CE010E9473277C
:1030F0002196005C185FC035D10509F0B4CF02C03D
:10310000F1109ACFDF91CF911F910F91FF90089509
:103110000E94192BFB0101900020E9F73197AF01C4
:10312000461B570BDC01ED91FC910280F381E02DF1
:1031300009948F929F92AF92BF92EF92FF920F935A
:103140001F93CF93DF93CDB7DEB7A1970FB6F89457
:10315000DEBF0FBECDBF7C01FA01CB0119A2223028
:1031600008F42AE08E010F5D1F4F822E912CB12CA6
:10317000A12CBF01A50194010E94BD29F901CA013A
:103180006A300CF5605DD8016E938D01232B242BE2
:10319000252B79F790E080E0109721F0BD01C70161
:1031A0000E948A18A1960FB6F894DEBF0FBECDBF5D
:1031B000DF91CF911F910F91FF90EF90BF90AF9053
:1031C0009F908F900895695CDECFBC0184E793E007
:1031D0000C948A184F925F926F927F928F929F9277
:1031E000AF92BF92CF92DF92EF92FF926B017C0180
:1031F000AC019B010E94B82962EB71E0811126C0ED
:1032000046015701E894B7F82FEF3FEF4FE75FE72C
:10321000C501B4010E94B82981110CC02FEF3FEF06
:103220004FE75FE7C501B4010E94EE2766EB71E04E
:10323000181664F02FEF3FEF4FE75FE4C701B601C8
:103240000E944629181694F46AEB71E084E793E033
:10325000FF90EF90DF90CF90BF90AF909F908F90B6
:103260007F906F905F904F900C948A182FEF3FEFF4
:103270004FE75FECC701B6010E94EE2787FDE4CF60
:1032800020E030E0A901C701B6010E94EE27B12C71
:10329000A12C87FF0AC06DE284E793E00E944413EB
:1032A0005C01F7FAF094F7F8F0942AE037ED43EA7E
:1032B0005BE3C701B6010E9482272B013C010E94FB
:1032C00065286B017C010E9494289B01AC01C3011D
:1032D000B2010E9481272B013C012AE0B701A6011F
:1032E00084E793E00E9499187C01EA0CFB1C6EE2D3
:1032F00084E793E00E944413E80EF91E20E030E0DA
:1033000040E251E4C301B2010E944B292B013C0170
:103310000E9465284B01B12CA12C2AE0B501A40123
:1033200084E793E00E949918E80EF91EC501B401E4
:103330000E9494289B01AC01C301B2010E94812725
:1033400020E030E040E251E40E944B290E946528D1
:10335000AB0170E060E02AE084E793E00E949918F6
:103360008E0D9F1DFF90EF90DF90CF90BF90AF909C
:103370009F908F907F906F905F904F9008954F92A5
:103380005F926F927F928F929F92AF92BF92CF92F5
:10339000DF92EF92FF920F931F932B013C014901A3
:1033A0005A010E94781781E08093880381E090E0C1
:1033B000909387038093860390938503809384037F
:1033C0001092810310928003109283031092820363
:1033D0006DE273E084E793E00E942E08EE24E3940C
:1033E000F12C0AE010E020E830E04AE050E070E024
:1033F00060E084E793E00E9474148091FF028111E1
:1034000005C08091FE02882309F44EC096E2E92EA1
:10341000F12C00E810E02DEC30E04BE050E070E0E3
:1034200060E084E793E00E94EF15EE24E394F12C32
:103430000FE010E020E830E041E350E070E060E0B1
:1034400084E793E00E940915109287031092860387
:10345000109285031092840384E190E0909381039D
:103460008093800384E390E09093830380938203AE
:103470008091FF026DEB70E0811102C06CEA70E098
:1034800084E793E00E942E081F910F91FF90EF9028
:10349000DF90CF90BF90AF909F908F907F906F9074
:1034A0005F904F900C94D20F85E090E09093810351
:1034B0008093800381E190E0909383038093820363
:1034C0008EEB91E00E94E518C090F002D090F102DE
:1034D000E090F202F090F30220E030E0A901C70191
:1034E000B6010E94EE2787FF03C0C12CD12C7601C4
:1034F000C701B6010E94EA1885EC91E00E94E51828
:1035000088E10E94DF09BC01990F880B990B0E948A
:10351000962820E030E040E85AE30E944B2920E062
:1035200030E040E450E40E944B2920E030E040E2EB
:1035300051E40E94F32720E030E048EC51E40E947F
:103540004B296B017C016091F6017091F70190E0CD
:1035500080E00E94942820E030E040E85BE30E9495
:103560004B2920E030E040E05FE30E948227A70182
:1035700096010E944B290E94EA1889EC91E00E9472
:10358000E51885E090E090938103809380038DE1BE
:1035900090E090938303809382038CEC91E00E94EF
:1035A000E518C090EA02D090EB02E090EC02F090B7
:1035B000ED0220E030E0A901C701B6010E94EE272C
:1035C00087FF03C0C12CD12C7601C701B6010E9430
:1035D000EA1885EC91E00E94E5188DE10E94DF0970
:1035E000BC01990F880B990B0E94962820E030E0CF
:1035F00040E85AE30E944B2920E030E040E450E4E8
:103600000E944B2920E030E040E251E40E94F32781
:1036100020E030E044E652E40E944B296B017C013B
:103620006091F4017091F50190E080E00E9494288F
:1036300020E030E040E85BE30E944B2920E030E0EE
:1036400040E05FE30E948227A70196010E944B2978
:103650000E94EA1889EC91E00E94E518109281031B
:10366000109280038DE290E0909383038093820315
:1036700083ED91E00E94E518C301B2010E94EA18AF
:103680008DED91E00E94E518109281031092800365
:1036900088E390E090938303809382038FED91E021
:1036A0000E94E518C501B4010E94EA188DED91E071
:1036B0000E94E518EE24E394F12C06E110E026E2E6
:1036C00030E04AE250E06AE570E084E793E00E946F
:1036D000091509E210E020E830E049E250E070E02E
:1036E00060E084E793E00E94741482E08093880392
:1036F0001092870310928603109285031092840320
:103700008DE00E944C09892B89F081E690E090932E
:103710008103809380038EE290E0909383038093F3
:10372000820389EE91E00E94E518AECE8CE590E030
:1037300090938103809380038EE290E090938303C3
:10374000809382038CEE91E0EECF1F920F920FB622
:103750000F9211248F939F938091E1009091E1004B
:10376000937F9093E10083FF0FC01092E90091E0F6
:103770009093EB001092EC0092E39093ED00109286
:10378000130398E09093F00082FF22C093E090939F
:10379000E9009091F200992319F09AE39093E800E0
:1037A0009091AD02992341F09091AD029150909388
:1037B000AD02911101C05D9890911203992341F0DF
:1037C00090911203915090931203911101C0289887
:1037D00084FF18C08091E2008E7E81608093E200B9
:1037E0008091E1008F7E8093E1008091AE028E7E19
:1037F00080618093AE029F918F910F900FBE0F90CA
:103800001F90189580FFF7CF8091E2008E7E806137
:103810008093E2008091E1008E7E8093E1008091B0
:10382000AE028E7E8160E5CF1F920F920FB60F928F
:103830001124CF92DF92EF92FF920F931F932F9359
:103840003F934F935F936F937F938F939F93AF9328
:10385000BF93EF93FF93CF93DF93CDB7DEB76C9712
:10386000DEBFCDBF1092E9008091E80083FF25C044
:1038700068E0CE0145960E94210882EF8093E8001F
:103880008D8987FF39C09091E80090FFFCCF982F79
:10389000907609F034C19E894F89588D2F89F88C14
:1038A000911131C0803861F58091AF028093F100B1
:1038B0001092F1008EEF8093E8006C960FB6F894AA
:1038C000DEBF0FBECDBFDF91CF91FF91EF91BF91D2
:1038D000AF919F918F917F916F915F914F913F91A8
:1038E0002F911F910F91FF90EF90DF90CF900F904D
:1038F0000FBE0F901F9018959EEF9093E800C7CFD2
:103900001092F100D5CF913059F48111D3CF4130CD
:10391000510581F68091AF028D7F8093AF02CACFAF
:10392000933049F48111C6CF4130510519F6809189
:10393000AF028260F2CF953041F48091E80080FFC1
:10394000FCCF20682093E300B5CF963009F0A9C0E2
:103950000B8D1C8D22E01092E9001092AB021092A8
:10396000AA02F2122EC01092A9021092A8020E947E
:10397000F0071F8299E09983FA8291E09E8390EA92
:1039800098879AEF99872091AA023091AB02275F1E
:103990003F4F3C832B838D831092E9001092AB0242
:1039A0001092AA021093A9020093A80249E050E0E5
:1039B000BE016F5F7F4F80E00E94CA070E94F00740
:1039C00079CF1093A9020093A8020E948607DC0118
:1039D00012960D911C910115110509F451C1D801E0
:1039E000ED91FC910480F581E02DBE016B5E7F4F6F
:1039F000C8010995009709F03EC1F80100851185BD
:103A0000EACFF3E0FF120EC08F89882309F440C08B
:103A1000823061F440E86DE080EF98E00E94AF1FD3
:103A2000811148CF81E28093EB0047CF813029F4A8
:103A300040E86BE084EE98E0F1CF833099F70E9484
:103A40008607DC011296ED90FC908E010F5F1F4FF0
:103A50006801E114F10479F0D701ED91FC91068041
:103A6000F781E02DB801C7010995080F111DF70175
:103A7000E084F184EECFD8011C92F6010190002081
:103A8000E9F73197BF016C197D0940E0C601C6CF47
:103A90006EEC78E0FB01449150E080E80E94CA0798
:103AA00009CF973009F4BECF983021F481E080939C
:103AB000F10000CF993009F0FDCE837009F0B2CF4C
:103AC000ECE5F1E081E031E096E32191222371F011
:103AD0008093E9003093EB00DF0111972C91209344
:103AE000EC009093ED008F5F873079F78EE780933D
:103AF000EA001092EA008F8980931303DBCE8B8D4E
:103B00009C8D1092E9001092AB021092AA02909341
:103B1000A9028093A802898D811192C08E899D8906
:103B2000913A49F4813209F07DCF47E050E064E0FA
:103B300071E080E0B3CF913209F074CF833269F441
:103B40008F89988DB0E0A0E08093000190930101EF
:103B5000A0930201B0930301ADCE803269F480914D
:103B6000E80082FFFCCF67E084E091E00E9421083A
:103B70008BEF8093E8009ECE823209F09BCE8F8936
:103B800080930B01EEEFFFE7859194918B3F9C4D65
:103B900051F1E0E0F8E08091040190910501A091DD
:103BA0000601B0910701803B9440A105B105F1F4F5
:103BB00080910B0180FD1AC0EE3F8AE0F80789F57D
:103BC00087E797E791838083809160008093AC02C0
:103BD00088E19BE00FB6F894A895809360000FBE33
:103BE0009093600067CEEEEFFAE0D5CF80819181AF
:103BF0008737974709F05ECEA8958091600088616D
:103C0000809360008091AC0280936000EE3F2AE0D8
:103C1000F20789F08091FE0A9091FF0A91838083D8
:103C200049CE808191818737980751F29093FF0A9E
:103C30008093FE0AC5CF1092FF0A1092FE0A3ACE78
:103C40000E948607DC0112960D911C910115110549
:103C500009F4E8CED801ED91FC910190F081E02DBE
:103C6000BE016B5E7F4FC8010995811123CEF8011B
:103C700000851185EBCF181619060CF41BCED2CE99
:103C8000F1E0FF12BECE62ED78E004CF1F920F92FA
:103C90000FB60F9211242F933F938F939F93AF935F
:103CA000BF938091A0029091A102A091A202B09135
:103CB000A30230919F0223E0230F2D3758F5019680
:103CC000A11DB11D20939F028093A0029093A10299
:103CD000A093A202B093A3028091A4029091A502A6
:103CE000A091A602B091A7020196A11DB11D8093DB
:103CF000A4029093A502A093A602B093A702BF913D
:103D0000AF919F918F913F912F910F900FBE0F9088
:103D10001F90189526E8230F0296A11DB11DD2CF42
:103D20001F920F920FB60F9211242F933F934F9330
:103D30005F936F937F938F939F93AF93BF93EF9313
:103D4000FF938091B900887F803609F44AC0F0F56E
:103D5000883209F4A7C018F5803109F49BC0B8F483
:103D6000882309F4F9C0883009F494C0FF91EF91D9
:103D7000BF91AF919F918F917F916F915F914F9183
:103D80003F912F910F900FBE0F901F901895883183
:103D900009F488C0803251F780937B0214C08034CC
:103DA00009F49DC040F48033B9F38833F9F6809369
:103DB0007B0285ECB0C0803509F485C0883509F4F4
:103DC00096C0883499F60E94F10AD0CF883909F458
:103DD0008CC038F5883729F050F4883611F08037D8
:103DE00029F683E08093B70210927A0257C0883890
:103DF00009F47BC0803919F0803809F0B7CF809181
:103E00007A02803208F071C0E0917A0281E08E0F70
:103E100080937A028091BB00F0E0E65AFD4F8083E8
:103E20003DC0803B39F0E0F4803A09F479C0883A2B
:103E300009F09CCF84E08093B7021092590210924F
:103E40005802E091B302F091B402099580915802B2
:103E500081110FC081E0809358021092380209C08E
:103E6000803C09F4A6CF883C09F4A3CF883B09F035
:103E70007DCFE091590281E08E0F80935902F0E0EE
:103E8000E85CFD4F80818093BB0090915902809146
:103E9000580229C080919E028093BB0085EC8093DC
:103EA000BC0064CF90919D0280919C02981758F5B8
:103EB000E0919D0281E08E0F80939D02F0E0E45836
:103EC000FD4F8081E9CFE0919D0281E08E0F8093CC
:103ED0009D028091BB00F0E0E458FD4F80839091FB
:103EE0009D0280919C029817C8F285E8D8CFE09196
:103EF0009D0281E08E0F80939D028091BB00F0E0D7
:103F0000E458FD4F80838091B60281115CCF81E03F
:103F10008093B50284EA8093BC001092B70226CF4A
:103F200085EC8093BC001092B70280917A028032B7
:103F300030F4E0917A02F0E0E65AFD4F1082609191
:103F40007A0270E0E091B102F091B2028AE592E06B
:103F5000099510927A020ACF10927B0234CFEF9229
:103F6000FF920F931F93CF93DF93F82E192FE62E16
:103F7000042F81E0860F880F0E949C0783E00E9437
:103F80009C07CF2DD12FEC0EFD2EF11CCE15DF0599
:103F9000B9F007FF13C0FE0184910E949C07182FFF
:103FA00080E00E949C07812321968111EFCFDF9151
:103FB000CF911F910F91FF90EF9008958881EDCFE1
:103FC00081E0F5CFE8E1F3E01382128248EE53E09E
:103FD00060E070E0448355836683778386E691E0F2
:103FE000918380838FEF9FEF95878487A8E6B3E066
:103FF00013961C921E92129714964D935D936D9397
:104000007C93179728E731E011963C932E93E4E7D1
:10401000F3E01382128240E850E05583448320E4A9
:1040200030E0378326835187408733872287158A7C
:10403000158614861786168621E0248B938B828B37
:10404000918B808B268B178A118E108E8AE891E0D7
:1040500091838083138E128EB58FA48F178E168E48
:104060008FEF83A384A385A386A382E087A380E543
:1040700084AB15AA80E89AE1A6E0B0E086AB97ABE6
:10408000A0AFB1AF80EA96E8A1E0B0E082AF93AF15
:10409000A4AFB5AF0895789484B5826084BD84B52B
:1040A000816084BD85B5826085BD85B5816085BD33
:1040B00080916E00816080936E00109281008091EB
:1040C0008100826080938100809181008160809373
:1040D00081008091800081608093800080919100B8
:1040E0008260809391008091910081608093910023
:1040F000809190008160809390008091C1008460E5
:104100008093C1008091C10082608093C100809142
:10411000C10081608093C1008091C3008160809361
:10412000C3008091C00082608093C0008091C20073
:1041300081608093C20080917A00846080937A00CD
:1041400080917A00826080937A0080917A00816009
:1041500080937A0080917A00806880937A00109230
:1041600013031092AF021092AE028091D7008160CB
:104170008093D70080EA8093D80089B5806189BD9B
:1041800089B5826089BD09B400FEFDCF61E070E0B1
:1041900080E090E00E942E0A8091D8008F7C8061A0
:1041A0008093D8008091E000807F8093E000809130
:1041B000E1008E7E8093E1008DE08093E200559ACD
:1041C000209A5D98289810920C0162E086E10E9486
:1041D000A30962E085E10E94A30962E084E10E94F4
:1041E000A30962E083E10E94A30962E082E10E94E8
:1041F000A30962E088E00E94A30960E08DE00E94CC
:10420000A30962E08BE00E94A30961E087E00E94BD
:10421000A30961E087E00E94750961E080E00E94E7
:10422000A30961E080E00E94750961E081E00E94DD
:10423000A30960E081E00E94750961E087E10E94C6
:10424000A30961E087E10E94750960E08AE00E94AD
:10425000A30960E089E00E94A30960E088E10E9470
:10426000A30960E08DE10E94A309809192039091DF
:104270009303892B39F10E94781780917A039091EA
:104280007B036091780370917903813291050CF082
:104290002CC2AC014052510957FF02C04F5F5F4F23
:1042A000559547956357710977FF02C06F5F7F4F40
:1042B0007595679500E2E02EF12C03E710E024E706
:1042C00039E02BC220917A0330917B03C901079614
:1042D00097FD079643E0959587954A95E1F72091DC
:1042E000780330917903AC01429FC001439F900D48
:1042F000529F900D11240E94F42990939303809370
:104300009203892B09F0B7CF62E370E080E090E080
:104310000E942E0A80E00E940F180E94B21760E0EF
:10432000262E60E0362EC1E016E5D4E004E586E1F5
:104330000E944C096C0185E10E944C0924E0CC0CE0
:10434000DD1C2A95E1F733E0880F991F3A95E1F7D4
:10435000C82AD92A84E10E944C097C0183E10E9489
:104360004C094C0182E10E944C09EE0CFF1CEE0C42
:10437000FF1C8C299D29E82AF92A880C991C8E2873
:104380009F28C40140960E946B27682F70E090E040
:1043900080E00E94942820E030E040EA51E40E944E
:1043A000F3276B017C01C401C0960E946B27682F24
:1043B00070E090E080E00E94942820E030E040EA45
:1043C00051E40E94F3274B015C0188E00E944C09F4
:1043D00021E0892B09F420E0209314018BE00E9456
:1043E0004C09892B09F476C380910103811186C39E
:1043F0008DE00E944C0961E0892B09F460E08EE1B8
:104400000E9475098AE00E94DF09BC01990F880BA0
:10441000990B0E94962820E030E040E450E40E948E
:104420004B2920E030E040E85AE30E944B2920E08D
:1044300030E048E452E40E94F3272AE037ED43EAF3
:104440005BE30E94F3272B013C016091F402709121
:10445000F50290E080E00E94942820E030E040E8FF
:104460005BE30E944B2920E030E040E05FE30E94E4
:1044700082279B01AC01C301B2010E944B292B0191
:104480003C014092F0025092F1026092F20270926E
:10449000F30220E030E040E151E40E944629181682
:1044A00004F1A3019201C701B6010E94EE2787FF24
:1044B00004C0809114018823A1F020E030E040EE98
:1044C0005FE3C701B6010E944B299B01AC01C30108
:1044D000B2010E94462918160CF048C380911401BD
:1044E0008111C093FF028091FF02882319F080E0C0
:1044F0000E94131789E00E94DF09BC01990F880B05
:10450000990B0E94962820E030E040E450E40E949D
:104510004B2920E030E040E85AE30E944B2920E09C
:1045200030E048E452E40E94F3272AE037ED43E20A
:104530005CE30E94F3272B013C016091EE02709135
:10454000EF0290E080E00E94942820E030E040E814
:104550005BE30E944B2920E030E040E05FE30E94F3
:1045600082279B01AC01C301B2010E944B292B01A0
:104570003C014092EA025092EB026092EC0270928F
:10458000ED0220E030E040EA50E40E94462918168F
:1045900004F1A3019201C501B4010E94EE2787FF37
:1045A00004C0809114018823A1F020E030E040EEA7
:1045B0005FE3C501B4010E944B299B01AC01C3011B
:1045C000B2010E94462918160CF00AC3809114010A
:1045D0008111C093FF027090FE02772019F080E0F5
:1045E0000E94131780911301882389F18091FF02A3
:1045F000811103C0772009F42FC3A5019401C701DD
:10460000B6010E94BF190E94E50AC0900203D09033
:104610000303E0900403F09005036C197D098E09F3
:104620009F09C0900D01D0900E01E0900F01F09015
:104630001001C616D706E806F90648F48091E10293
:10464000882329F08EEA0E94880F1092130188E1D6
:1046500093E00E94E608181619060CF03FC08091FE
:10466000E002811114C088E193E00E94A4088093C5
:10467000CC02863509F01AC3C093E0028091CA02C9
:104680009091CB0201969093CB028093CA028091C5
:10469000E002882319F188E193E00E94E6081816E9
:1046A0001906E4F488E193E00E94A4082091CA026C
:1046B0003091CB02F901E453FD4F8083C90101968B
:1046C0009093CB028093CA024091CD02413120F4F5
:1046D0008131910508F4EDC20E949817211431042C
:1046E00009F425CE0E94000021CEAC0140545109AE
:1046F00057FF02C04F5F5F4F55954795625571094F
:1047000077FF02C06F5F7F4F7595679520E4E22EBB
:10471000F12C02E510E024E53BE084E793E00E9401
:10472000EF1582E08093950380919003909191031F
:10473000892B09F4C4C08CE3809394031092B902CE
:104740001092B80210921503109214031092B7023F
:1047500081E08093B6021092B50261E082E00E948F
:10476000750961E083E00E9475098091B9008E7F30
:104770008093B9008091B9008D7F8093B90088E45F
:104780008093B80085E48093BC008AE997E0909319
:10479000B4028093B3028BE997E09093B2028093C6
:1047A000B10280919B0387FD1EC061E00E94A309B6
:1047B00061E080919B030E94750961E070E080E0F8
:1047C00090E00E942E0A60E080919B030E94750990
:1047D0006AE070E080E090E00E942E0A61E0809143
:1047E0009B030E9475098091900390919103892BFE
:1047F00009F424C16091AA037091AB038091AC03CA
:104800009091AD030E94220B64E084E299E00E9443
:10481000750E60917A03615084E793E00E94230F44
:1048200064E080E299E00E94750E8091950360E15A
:10483000813009F064E184E793E00E94230F64E093
:104840008CE199E00E94750E809178039091790334
:104850008038910509F01DC180917A0390917B0306
:104860008032910509F001C164E088E199E00E947D
:10487000750E69ED84E793E00E94230F8091950304
:1048800062E2813009F061EF84E793E00E94230F38
:1048900066E08CE099E00E94750E80919003909103
:1048A0009103892B09F40CC16091AE037091AF03A1
:1048B0008091B0039091B1030E94220B25CD61E05D
:1048C000809199030E94A30961E080919A030E945C
:1048D000A30980919903082E000C990BFC01EB5A57
:1048E000F64FE491F0E0EE0FFF1FE95BF64F2591E4
:1048F00034913093A1032093A003FC01E85DF64FAF
:10490000E491E093A60380919A03082E000C990B82
:10491000FC01EB5AF64FE491F0E0EE0FFF1FE95B6C
:10492000F64FA591B491B093A303A093A203FC0109
:10493000E85DF64FE491E093A7038C91E82BEC93AC
:1049400080918E0390918F03892B09F434C0CFB7E7
:10495000F8948091B002811127C0E6E6F9E08491D5
:10496000E9E3F9E09491E82FF0E0EE0FFF1FE25049
:10497000F74FA591B491EC91E92321F461E081E135
:104980000E94750961E081E10E94A3098CB58061F4
:104990008CBD8CB580648CBD61E08FE00E94A30962
:1049A00061E080E10E94A3098091B0028F5F809353
:1049B000B002CFBFF6CE61E0809197030E94A309B9
:1049C00061E0809198030E94A30980919703082ECB
:1049D000000C990BFC01EB5AF64FE491F0E0EE0F5E
:1049E000FF1FE95BF64F2591349130939D0320938F
:1049F0009C03FC01E85DF64FE491E093A4038091F1
:104A00009803082E000C990BFC01EB5AF64FE49129
:104A1000F0E0EE0FFF1FE95BF64FA591B491B09364
:104A20009F03A0939E03FC01E85DF64FE491E093A1
:104A3000A5038C91E095E823EC93B3CE80918E038F
:104A400090918F03892B31F08091A8039091A90355
:104A50000E94850FE091A203F091A30390818091C1
:104A6000A703809589238083CFCE8034910509F0F8
:104A700000CF63E085E199E00E94750E8091950377
:104A80006FE9813009F06FEC84E793E00E94230F17
:104A9000F0CE8036910509F0ECCE80917A039091AA
:104AA0007B03409709F0E5CE63E082E199E00E9444
:104AB000750E8091950360E1813031F36FEAE4CFA8
:104AC000E091A203F091A30380819091A703892B29
:104AD00080831ACC0E94E50A4090020350900303A1
:104AE000609004037090050364197509860997099D
:104AF000653F71408105910508F476CC80910103F2
:104B0000811106C08091000391E089278093000302
:104B10000E94E50A609302037093030380930403E9
:104B2000909305031092FF021092FE02109201036F
:104B30001092FA021092FB021092FC021092FD02F7
:104B40001092F6021092F7021092F8021092F902F7
:104B500080911301811105C08FEA0E94880FC093D4
:104B60001301809100030E94131742CCA30192010C
:104B7000C701B6010E94EE2787FFB5CC80911401D2
:104B8000882309F4B0CC4090FA025090FB02609068
:104B9000FC027090FD02411451046104710459F447
:104BA0000E94E50A6093FA027093FB028093FC0274
:104BB0009093FD0298CC0E94E50AAB01BC01441918
:104BC0005509660977098091110190911201B0E0B1
:104BD000A0E084179507A607B70708F482CC83CC1A
:104BE000A3019201C501B4010E94EE2787FFF3CC17
:104BF00080911401882309F4EECC4090F602509085
:104C0000F7026090F8027090F902411451046104B7
:104C1000710459F40E94E50A6093F6027093F7025A
:104C20008093F8029093F902D6CC0E94E50AAB017A
:104C3000BC014419550966097709809111019091C9
:104C40001201B0E0A0E084179507A607B70708F0A7
:104C5000C2CCC093FE02BFCC80911401882309F41A
:104C600006C10E94E50A4090E6025090E70260907B
:104C7000E8027090E9026419750986099709653F91
:104C800071408105910508F4BECCA5019401C701CE
:104C9000B6010E94BF190E94E50A6093E602709374
:104CA000E7028093E8029093E902ADCC0E94981746
:104CB000EECC8330910508F4EECC4817190609F0C4
:104CC000EACCECECF2E050E040E080E09191421759
:104CD000530724F489274F5F5F4FF8CF891334C0FF
:104CE000EAEBF2E020E111922A95E9F71093BA027B
:104CF0008091CE028093BC02823A09F495C0B0F450
:104D0000803A79F1813A09F46AC064E17EE088E191
:104D100093E00E942E084091CE0250E070E060E0E7
:104D200020E188E193E00E94991814C0813B09F4C6
:104D300096C0823B09F48BC0803B39F781E00E942A
:104D40000F180E94B2177AC066E27EE088E193E015
:104D50000E942E0860EF71E088E193E00E948A18BB
:104D6000BBCC4EE04093BB028FB18093BD0283B1B8
:104D700039B12CB196B180793072832B2074822B9B
:104D800092959870892B8093BE028AE00E94DF0979
:104D90009093BF028093C00289E00E94DF09909344
:104DA000C1028093C20288E10E94DF099093C3028E
:104DB0008093C4028DE10E94DF099093C502809325
:104DC000C6020E9468178093C7024091BB0250E060
:104DD0006AEB72E088E193E00E94600A7DCC009368
:104DE000BB0243E050E06AEB72E088E193E00E948E
:104DF000600A83EAD82EF12CE12CC7010E946B27B0
:104E0000C82E682F88E193E00E947F08DC245FEFC2
:104E1000E51AF50A80E5E816F10479F76D2D88E1C9
:104E200093E00E947F0858CC81E09091CF029111CD
:104E300001C080E080930003C0930103D093BB02C4
:104E40000E9468178093BD0244E050E0C1CF80917A
:104E5000CF0290E06091D10280960E9473278091EA
:104E6000CF026091D00290E00E9473276ACF0E9427
:104E7000E50A4090E2025090E3026090E4027090F4
:104E8000E5026419750986099709653C7940810531
:104E9000910508F4B8CBA5019401C701B6010E94A1
:104EA000BF190E94E50A6093E2027093E3028093C7
:104EB000E4029093E502A7CB8AE891E09093750312
:104EC000809374038091920390919303009711F063
:104ED0000C94902A0895F999FECF92BD81BDF89A5D
:104EE000992780B50895262FF999FECF1FBA92BD54
:104EF00081BD20BD0FB6F894FA9AF99A0FBE0196BB
:104F000008955058BB27AA270E9499270C940C2972
:104F10000E94FE2838F00E94052920F039F49F3FB6
:104F200019F426F40C94FB280EF4E095E7FB0C949E
:104F3000F528E92F0E941D2958F3BA176207730755
:104F40008407950720F079F4A6F50C943F290EF418
:104F5000E0950B2EBA2FA02D0B01B90190010C0189
:104F6000CA01A0011124FF27591B99F0593F50F4A1
:104F7000503E68F11A16F040A22F232F342F4427F9
:104F8000585FF3CF469537952795A795F0405395F1
:104F9000C9F77EF41F16BA0B620B730B840BBAF0C1
:104FA0009150A1F0FF0FBB1F661F771F881FC2F72C
:104FB0000EC0BA0F621F731F841F48F48795779540
:104FC0006795B795F7959E3F08F0B0CF9395880FFA
:104FD00008F09927EE0F9795879508950E94D1289C
:104FE00008F481E008950E9407280C940C290E947F
:104FF000052958F00E94FE2840F029F45F3F29F06F
:105000000C94F52851110C9440290C94FB280E9413
:105010001D2968F39923B1F3552391F3951B550B83
:10502000BB27AA2762177307840738F09F5F5F4F7B
:10503000220F331F441FAA1FA9F335D00E2E3AF0BA
:10504000E0E832D091505040E695001CCAF72BD0D2
:10505000FE2F29D0660F771F881FBB1F2617370723
:105060004807AB07B0E809F0BB0B802DBF01FF2755
:1050700093585F4F3AF09E3F510578F00C94F52815
:105080000C9440295F3FE4F3983ED4F386957795DE
:105090006795B795F7959F5FC9F7880F911D96950E
:1050A000879597F90895E1E0660F771F881FBB1F6A
:1050B000621773078407BA0720F0621B730B840B17
:1050C000BA0BEE1F88F7E09508950E94252988F015
:1050D0009F5798F0B92F9927B751B0F0E1F0660FBC
:1050E000771F881F991F1AF0BA95C9F714C0B130FD
:1050F00091F00E943F29B1E008950C943F29672F59
:10510000782F8827B85F39F0B93FCCF3869577952B
:105110006795B395D9F73EF4909580957095619514
:105120007F4F8F4F9F4F0895E89409C097FB3EF43F
:1051300090958095709561957F4F8F4F9F4F9923E4
:10514000A9F0F92F96E9BB279395F6958795779562
:105150006795B795F111F8CFFAF4BB0F11F460FF22
:105160001BC06F5F7F4F8F4F9F4F16C0882311F07A
:1051700096E911C0772321F09EE8872F762F05C08E
:10518000662371F096E8862F70E060E02AF09A9529
:10519000660F771F881FDAF7880F9695879597F91E
:1051A0000895990F0008550FAA0BE0E8FEEF1616B8
:1051B0001706E807F907C0F012161306E407F5070B
:1051C00098F0621B730B840B950B39F40A2661F07F
:1051D000232B242B252B21F408950A2609F4A14022
:1051E000A6958FEF811D811D089597F99F6780E82F
:1051F00070E060E008959FEF80EC089500240A9429
:105200001616170618060906089500240A941216A1
:105210001306140605060895092E0394000C11F4D4
:10522000882352F0BB0F40F4BF2B11F460FF04C081
:105230006F5F7F4F8F4F9F4F089557FD9058440FDA
:10524000551F59F05F3F71F04795880F97FB991FE5
:1052500061F09F3F79F087950895121613061406A2
:10526000551FF2CF4695F1DF08C01616170618062F
:10527000991FF1CF86957105610508940895E8940A
:10528000BB2766277727CB0197F908950E94D1287D
:1052900008F48FEF08950E945E290C940C290E9457
:1052A000FE2838F00E94052920F0952311F00C9477
:1052B000F5280C94FB2811240C9440290E941D29E8
:1052C00070F3959FC1F3950F50E0551F629FF00159
:1052D000729FBB27F00DB11D639FAA27F00DB11D72
:1052E000AA1F649F6627B00DA11D661F829F2227FB
:1052F000B00DA11D621F739FB00DA11D621F839F82
:10530000A00D611D221F749F3327A00D611D231F57
:10531000849F600D211D822F762F6A2F11249F57A5
:1053200050409AF0F1F088234AF0EE0FFF1FBB1FA8
:10533000661F771F881F91505040A9F79E3F510567
:1053400080F00C94F5280C9440295F3FE4F3983EDC
:10535000D4F3869577956795B795F795E7959F5F11
:10536000C1F7FE2B880F911D9695879597F90895A3
:105370000E94D128880B990B0895A1E21A2EAA1B2E
:10538000BB1BFD010DC0AA1FBB1FEE1FFF1FA217F5
:10539000B307E407F50720F0A21BB30BE40BF50BF2
:1053A000661F771F881F991F1A9469F7609570957B
:1053B000809590959B01AC01BD01CF010895EE0F42
:1053C000FF1F0590F491E02D0994A29FB001B39FB7
:1053D000C001A39F700D811D1124911DB29F700DFE
:1053E000811D1124911D08950F931F93CF93DF9377
:1053F0008230910510F482E090E0E091B403F091E6
:10540000B50330E020E0B0E0A0E0309799F421153A
:10541000310509F44AC0281B390B24303105D8F571
:105420008A819B816115710589F1FB0193838283D8
:10543000FE0111C040815181028113814817590733
:10544000E0F04817590799F4109761F012960C9301
:10545000129713961C933296CF01DF91CF911F9133
:105460000F9108950093B4031093B503F4CF211561
:10547000310551F04217530738F0A901DB019A01B9
:10548000BD01DF01F801C1CFEF01F9CF9093B50362
:105490008093B403CDCFFE01E20FF31F819391936C
:1054A0002250310939832883D7CF2091B20330911C
:1054B000B303232B41F4209117013091180130934D
:1054C000B3032093B20320911501309116012115E9
:1054D000310541F42DB73EB74091190150911A01A1
:1054E000241B350BE091B203F091B303E217F307ED
:1054F000A0F42E1B3F0B2817390778F0AC014E5F44
:105500005F4F2417350748F04E0F5F1F5093B303CA
:105510004093B203819391939FCFF0E0E0E09CCF62
:10552000CF93DF930097E9F0FC0132971382128248
:10553000A091B403B091B503ED0130E020E01097E5
:10554000A1F420813181820F931F2091B203309109
:10555000B3032817390709F061C0F093B303E09350
:10556000B203DF91CF910895EA01CE17DF07E8F586
:105570004A815B819E0141155105B1F7E901FB8329
:10558000EA8349915991C40FD51FEC17FD0761F4C7
:10559000808191810296840F951FE9019983888308
:1055A000828193819B838A83F0E0E0E012968D9163
:1055B0009C9113970097B9F52D913C911197CD01CE
:1055C0000296820F931F2091B2033091B3032817E4
:1055D000390739F6309751F51092B5031092B4039C
:1055E000B093B303A093B203BCCFD383C2834081F3
:1055F0005181840F951FC817D90761F44E5F5F4F23
:1056000088819981480F591F518340838A819B81EA
:10561000938382832115310509F0B0CFF093B50350
:10562000E093B4039ECFFD01DC01C0CF1382128250
:10563000D7CF81E090E0F8940C94252BDC0101C0D9
:105640006D9341505040E0F7089517E0CFE1D7E067
:1056500004C0FE010E94DF292196C032D107C9F79C
:10566000F894FFCFFFFFFFFF00E100000000000003
:1056700001A0BB0D00960001010000B603800000F0
:1056800000003F0000C03F00004040000098400084
:105690000080400000803F000010400000504000AB
:1056A0000098400000B0400000D84000000041AD2C
:1056B000010C0F0F000000000000008080808000BF
:1056C000C18081000000000000007F08600AA0087F
:1056D0009508E608A408C208000000008B0B5E0BCA
:1056E00010174A07570B440B350B000000004413FA
:1056F000520810170F17BE0D4A07E815C015DC1524
:10570000D01562164A072211E5102E0D770D0915E6
:10571000EC14741415146E616E00696E66006F7679
:1057200066002B35563A20200041202800562900DB
:105730002B3132563A20003556204C696D3A2020E4
:10574000004100313256204C696D3A20004F4E0026
:105750004F4646000D0A0000FFFFFFFFFFFFFFFF5F
:10576000FFFFFFFFFFFFFFFFFFFFFFFFFFFFFFFF49
:10577000FFFFFFFFFFFFFFFFFFFFFFFFFFFFFFFF39
:10578000EC14741415146E616E00696E66006F7609
:1057900066002B35563A202000412028005629006B
:1057A0002B3132563A20003556204C696D3A202074
:1057B000004100313256204C696D3A20004F4E00B6
:1057C0004F4646000D0A0000FFFFFFFFFFFFFFFFEF
:1057D000FFFFFFFFFFFFFFFFFFFFFFFFFFFFFFFFD9
:1057E000FFFFFFFFFFFFFFFFFFFFFFFFFFFFFFFFC9
:1057F000FFFFFFFFFFFFFFFFFFFFFFFFFFFFFFFFB9
:1058000013821282D7CF81E090E0F8940C940F2C91
:10581000DC0101C06D9341505040E0F7089517E05E
:10582000CFE1D7E004C0FE010E94C92A2196C03210
:10583000D107C9F7F894FFCFFFFFFFFF00E1000099
:1058400000000000A0BB0D0096000101010000BD9A
:105850000380000000003F0000C03F000040400007
:10586000009840000080400000803F000010400091
:10587000005040000098400000B0400000D84000B8
:10588000000041AD010A0F0F000000000000008081
:1058900080808000C1808100000000000000700A4C
:1058A000EB09910A860AD70A950AB30A000000009C
:1058B000C00B930BE8174A078C0B790B6A0B00009F
:1058C00000001B14BE09E817E7177D0E4A07C01633
:1058D0009816B416A8163A174A07E111A411ED0D4F
:1058E000360EE115C4154C15ED146E616E00696E2F
:1058F00066006F7666002B35563A2020004120283E
:10590000005629002B3132563A20003556204C697A
:105910006D3A2020004100313256204C696D3A200A
:10592000004F4E004F4646000D0A0000FFFFFFFFEC
:10593000FFFFFFFFFFFFFFFFFFFFFFFFFFFFFFFF77
:10594000FFFFFFFFFFFFFFFFFFFFFFFFFFFFFFFF67
:10595000FFFFFFFFFFFFFFFFFFFFFFFFFFFFFFFF57
:10596000FFFFFFFFFFFFFFFFFFFFFFFFFFFFFFFF47
:10597000FFFFFFFFFFFFFFFFFFFFFFFFFFFFFFFF37
:10598000004100313256204C696D3A20004F4E00E4
:105990004F4646000D0A0000FFFFFFFFFFFFFFFF1D
:1059A000FFFFFFFFFFFFFFFFFFFFFFFFFFFFFFFF07
:1059B000FFFFFFFFFFFFFFFFFFFFFFFFFFFFFFFFF7
:1059C000FFFFFFFFFFFFFFFFFFFFFFFFFFFFFFFFE7
:1059D000FFFFFFFFFFFFFFFFFFFFFFFFFFFFFFFFD7
:1070000055C000006EC000006CC000006AC00000E7
:1070100068C0000066C0000064C0000062C00000DC
:1070200060C000005EC00000F2C400005AC0000052
:1070300058C0000056C0000054C0000052C00000FC
:1070400050C0000078C000004CC000004AC00000E2
:1070500048C0000046C0000044C0000042C000001C
:1070600040C000003EC000003CC000003AC000002C
:1070700038C0000036C0000034C0000032C000003C
:1070800030C000002EC000002CC000002AC000004C
:1070900028C0000026C0000024C0000022C000005C
:1070A00020C000001EC000001CC0000011241FBE34
:1070B000CFEFDAE0DEBFCDBF11E0A0E0B1E0E2E368
:1070C000FFE702C005900D92A83AB107D9F711E089
:1070D000A8EAB1E001C01D92AE3BB107E1F78FD342
:1070E00026C78ECFF89410926F00109281001092F4
:1070F00085001092840081E085BF15BE47985D9899
